:020000040800F2
:10000000C0070020F101000897350008FD2D000809
:10001000953500089D070008054300080000000012
:10002000000000000000000000000000AF380008E1
:100030004F0800080000000099350008B13800089A
:100040000B0200080B0200080B0200080B0200085C
:100050000B0200080B0200080B0200080B0200084C
:100060000B0200080B0200080B020008A1070008A1
:100070000B0200080B0200080B0200080B0200082C
:100080000B020008000000000B0200080B02000831
:100090000B0200080B0200080B0200080B0200080C
:1000A0000B0200080B0200080B0200080B020008FC
:1000B0002D390008393900080B0200080B0200082E
:1000C0000B0200080B0200080B0200080B020008DC
:1000D0000B020008F94200080B0200080B0200089E
:1000E0000B0200080B0200080B0200080B020008BC
:1000F0000B0200080B0200080B02000800000000C1
:10010000000000000B020008000000000B020008C5
:100110000B020008000000000B0200080B020008A0
:100120000B0200080B0200080B0200080B0200087B
:100130000B02000800000000000000000B02000895
:100140000B0200080B020008000000000000000085
:10015000000000000000000000000000000000009F
:100160000000000000000000000000000B0200087A
:100170000B0200080000000000000000000000006A
:10018000000000000B02000800000000000000005A
:10019000000000000000000000000000000000005F
:1001A00000000000000000000B0200080B02000825
:1001B0000B0200080B0200080B0200080000000000
:1001C000000000000B02000800000000000000001A
:1001D0000B0200080B020008DFF810D000F0BAFA9A
:1001E00000480047854F0008AFF30080C00700209B
:1001F0000648804706480047FEE7FEE7FEE7FEE7C1
:10020000FEE7FEE7FEE7FEE7FEE7FEE71D39000832
:10021000D90100082DE9F05F0546002092469B4673
:1002200088460646814640241BE02846414647460C
:10023000224600F04BF953465A46C01A914110D35A
:1002400011461846224600F032F92D1A67EB0108D4
:100250004F4622460120002100F029F917EB000942
:100260004E41201EA4F10104DFDC484631462A46F7
:100270004346BDE8F09FD2B201E000F8012B491ED1
:10028000FBD270470022F6E710B513460A46044633
:100290001946FFF7F0FF204610BD2DE9FE4F81EA19
:1002A000030404F0004421F0004100944FF0000BDF
:1002B00023F0004350EA01045ED052EA03045BD00D
:1002C000C3F30A54C1F30A552C44A4F2F334019445
:1002D000A0FB0254C1F3130141F48011C3F31303D3
:1002E00043F4801301FB024400FB034E840A970A87
:1002F00044EA815447EA8357A4FB076802958D0AB4
:1003000005FB07854FEA932C04FB0C542705029D3F
:100310004FEA065847EA1637B5EB08056EEB070CAF
:10032000870E920E47EA811742EA8312A7FB020169
:10033000B6EB0B0164EB00042B0D43EA0C335E18A3
:1003400044EB1C50DA465146E7FB0201C5F31304A7
:100350004FEA0B3343EA14534FEA0432019C43EA59
:100360000603A4F10C040294009CCDE900B400F053
:10037000CCF803B0BDE8F08F00200146F9E72DE985
:10038000F04D81EA030404F0004B21F000451446CF
:100390004FF0000A23F0004150EA050220D054EA51
:1003A00001021DD0C5F30A570246C5F31303C1F37A
:1003B0001300C1F30A5640F4801543F48013A7EBF1
:1003C0000608101BD64608F2FD3873EB050002D371
:1003D00008F1010801E092185B41B8F1000F03DA5F
:1003E00000200146BDE8F08D00204FF48011064644
:1003F00084460EE0171B73EB050705D3121B63EB56
:10040000050306434CEA010C49084FEA30009218F4
:100410005B4150EA0107EDD152EA030012D082EAB3
:10042000040083EA0501084305D0101BAB4106D246
:100430000122002306E000224FF0004302E06FF0AB
:10044000010253101AEB06004CEB085110EB0A00A6
:1004500041EB0B01BDE8F04D00F048B800F0004260
:1004600030F000400AD0C10D01F56071C0F31600F4
:1004700042EA0151C208400711437047002001467B
:10048000704730B50B46014600202022012409E0C8
:1004900021FA02F59D4205D303FA02F5491B04FA3D
:1004A00002F52844151EA2F10102F1DC30BD202A1C
:1004B00004DB203A00FA02F1002070479140C2F1BB
:1004C000200320FA03F3194390407047202A04DBED
:1004D000203A21FA02F00021704721FA02F3D040BD
:1004E000C2F12002914008431946704710B5141E0E
:1004F00073F1000408DA401C41F1000192185B41DD
:100500001A4301D120F0010010BD2DE9F04D9246B3
:100510009B4611B1B1FA81F202E0B0FA80F22032CA
:100520009046FFF7C4FF04460F4640EA0A0041EA3E
:100530000B0153465A46084313D0114653EA0100B3
:1005400019D0C8F140025046FFF7C0FF05460E46DD
:10055000504659464246FFF7AAFF084305D00120FE
:1005600004E020463946BDE8F08D0020054346EA08
:10057000E0762C4337430A986305E40AA0EB0800B1
:100580000022FD0A44EA47540A3002D50020014601
:10059000E9E7010510196941DDE9084500196941DC
:1005A000BDE8F04DA2E72DE9FE4F804681EA030049
:1005B000C00F0C46009021F0004123F00045B8EB3D
:1005C0000200A94105D24046214690461C460B46F2
:1005D000024623F00040104347D0270DC7F30A001E
:1005E000C3F30A510290401A019040286BDAC3F31A
:1005F000130040F4801B0098924620B10023D2EBF8
:10060000030A63EB0B0B01985946C0F140025046B8
:10061000FFF74DFF06460D4650465946019A00F039
:10062000ABF810EB08006141002487EA115284EA1C
:10063000E7731A4340D0009A62B3019A012A4FEA45
:10064000075215DC001B61EB02014FF0004202EA89
:100650000752CDE90042001C41F5801132462B467D
:10066000FFF753FF03B0BDE8F08F40462146F9E79E
:10067000001B61EB0201001C41F5801300185B4177
:100680002018A2F5001747EB030140EAD570B61910
:100690006D4111E06D084FEA360645EAC0754FEA34
:1006A0000752001B61EB0201001C41F58011490853
:1006B0004FEA30000019514132462B4603B0BDE8E5
:1006C000F04FFFF713BF0098012240000023D0EB4A
:1006D000020263EBE073009821464FEAE074B8EB46
:1006E000000061EB0401E9E783F000435BE781F080
:1006F000004158E7C1F30A52C1F3130140F2FF333E
:1007000041F480119A4202DA00200146704740F21B
:1007100033439A42A2F2334202DC5242FFF7D6BE82
:10072000FFF7C5BE30B5041E71F1000404DB4FF0C5
:100730000044404264EB0101141E73F1000405DB28
:100740001C464FF00043524263EB0403994208BF3A
:10075000904230BD064C074D06E0E06840F00103D2
:1007600094E8070098471034AC42F6D3FFF738FD01
:100770003C6700085C670008202A06DBCB17203A9C
:1007800041FA02F043EAE07306E041FA02F3D04096
:10079000C2F120029140084319467047FEE700006D
:1007A000014800F01EBC0000600300200D490268F3
:1007B0008A4201D20C4901E00B492031D2B2142304
:1007C000083AB2FBF3F2436C02F01F0223F003037A
:1007D0001944816404498031C1640121914001655B
:1007E0007047000008040240000802400179074AEF
:1007F00002EB81024265054A4432491E826501F0DE
:100800001F0201219140C16570470000FC080240B1
:1008100030B5D0E913456560446D14B1D0E9164593
:10082000656090F8444004F01F050124AC40056C5D
:100830006C60046863608368102B036803D0996060
:100840000068C26030BD9A600068C16030BD70470A
:10085000002240F6B83306E00021491C89B29942D3
:10086000FBD3521C92B28242F6D3704772B6FEE7B7
:100870002DE9F84F00270446009790F85800DFF85C
:10088000E0930D46B846012811D0012684F858603F
:10089000206802F09BFC60B1E06D40F02000E06554
:1008A0005FF0010784F858803846BDE8F88F0220D1
:1008B000FBE7D5E900210C23206803EA91131844D3
:1008C000036B01F01F014FF01F0C0CFA01FCC2F387
:1008D000846223EA0C038A4013430363206802F016
:1008E00075FC8246206802F06DFC5AEA00003CD19B
:1008F000AA6829682068B2F1004F37D002F06AFC7C
:100900002068416921F00041416120686969C2683D
:10091000C2F3C102520091402A69042A31D000EB8F
:1009200082002B68026EDFF83CC303F0F84302EA52
:100930000C020B431A4342F00041016620682A6909
:10094000A96900EB8200026E22F080720A430266FF
:10095000297F22682869012910D0002102EB80003C
:10096000026E22F000720A4302667DE0002202F06D
:1009700031FC2068416941F00041C5E74FF000714A
:10098000ECE7002102F018FC400320684FF0000162
:1009900072D002F011FC90FAA0F0B0FA80F1286851
:1009A00042036ED090FAA0F0B0FA80F0814204D1F8
:1009B00000221146206802F01CFC0121206802F090
:1009C000FBFB400320684FF001015DD002F0F4FB17
:1009D00090FAA0F0B0FA80F12868420359D090FA5A
:1009E000A0F0B0FA80F0814204D1002201212068F9
:1009F00002F0FFFB0221206802F0DEFB40032068CA
:100A00004FF0020148D002F0D7FB90FAA0F0B0FA04
:100A100080F12868420344D090FAA0F0B0FA80F048
:100A2000814204D100220221206802F0E2FB03216E
:100A3000206802F0C1FB400320684FF0030133D06F
:100A400002F0BAFB90FAA0F0B0FA80F128684203F5
:100A50002FD090FAA0F0B0FA80F0814204D10022A9
:100A60000321206802F0C5FB2068816811F0010FA6
:100A700022D0ACE000E004E002F09EFBC0F3846111
:100A80008DE7C0F3846091E702F096FBC0F38461C8
:100A9000A2E7C0F38460A6E702F08EFBC0F3846196
:100AA000B7E7C0F38460BBE702F086FBC0F3846164
:100AB000CCE7C0F38460D0E72A7B296850F8B03FC8
:100AC000C1F3120C23EA0C0302F0180C664A22FA56
:100AD0000CF20A4013430360E968494577D128685E
:100AE00041031CD090FAA0F1B1FA81F1491C01F048
:100AF0001F0109294FEA403132D8002912D000BF26
:100B000090FAA0F1B1FA81F101F1010101F01F01A8
:100B100006FA01F609D100BFC0F3846109E0C0F311
:100B20008461E3E7C0F38461EEE790FAA0F1B1FAE3
:100B300081F101F1010101F01F0146EA816102D159
:100B4000C0F3846003E090FAA0F0B0FA80F000F106
:100B5000010000F01F0000EB400041EA005132E0CC
:100B600000290ED090FAA0F1B1FA81F101F1010152
:100B700001F01F0106FA01F606D100BFC0F384613F
:100B800006E0C0F38461F1E790FAA0F1B1FA81F1D7
:100B900001F1010101F01F0146EA816102D1C0F3B8
:100BA000846003E090FAA0F0B0FA80F000F1010058
:100BB00000F01F002D4A00EB400002EB005041EA1C
:100BC000000141F00071AA68206802F003FB284888
:100BD0002A6802423FF466AE26488168264B01F03F
:100BE000E0719A4202D0254B9A421CD10B021AD4D2
:100BF0002268B2F1A04F7FF455AE826841F4000143
:100C000022F0E0720A4382601D481E490068B0FB72
:100C1000F1F0401C00EB4000800000E0401E00901E
:100C20000028FBD13EE6184D184BAA4207D1CD0152
:100C300005D422689A42F5D041F0807109E0144D44
:100C4000AA42EFD14A02EDD422689A42EAD041F496
:100C50008001826822F0E0720A43826022E600008E
:100C600000007F4000F0FF03FFFF0700000020FEB0
:100C70000000088000030050000021C31000C09055
:100C800058000020400D0300000052C70001005032
:100C9000000084CBF8B54FF0000504002E46009507
:100CA00002D0E06D10B107E00120F8BD204600F051
:100CB000EBF8266684F8586020688168C1F34071BB
:100CC00019B18168684A1140816020688168C1F368
:100CD000007189B98168654A114041F08051816095
:100CE000634864490068B0FBF1F04000801C00E0FC
:100CF000401E00900028FBD120688168C1F300717C
:100D000041B9E16D41F01001E165216E41F0010151
:100D10002166012502F05AFAE16DC90600D430B10E
:100D2000E06D40F01000E06501252846F8BDE06D5B
:100D300020F4807040F00200E0652068806810F0C8
:100D4000010F11D14FF0A04080684B4900F0010025
:100D5000896801F00101084306D14848616882684A
:100D600022F47C120A438260E168E06B627F0843F0
:100D7000A16841EA4231084394F8241040EA014056
:100D8000012904D1218D3E4A02EB41410843E16A29
:100D900029B101F47871226B014342EA0100226813
:100DA000D168384B19400143D16020680169626BFA
:100DB00021F0406111430161206802F003FA70BB29
:100DC000207F94F83810800340EA41022168C86807
:100DD00044F2020398431043C86020690028206849
:100DE00001690AD041F480310161206850F8C01FC8
:100DF00022696FF30D01114307E021F48031016195
:100E0000206850F8C01F6FF30D01016094F8400096
:100E100001280CD02068016921F00101016160699D
:100E200001282068016B21F00F0111D013E0D4E9F3
:100E300011010843D4E913121143084321680A69D8
:100E400040F2FC739A43104340F001000861E6E76A
:100E5000226A521E11430163E06D20F0020040F04F
:100E60000100E06561E70000C0FFFF5FC0FFFF7F9A
:100E700058000020400D0300000100500003005006
:100E80000000FEFF0740F0FF10B598B004461421A3
:100E900011A8FFF7F7F944216846FFF7F3F9154960
:100EA0002068884223D1C401400500940F90684611
:100EB00000F0D8FB08B1FFF7D9FC0F48C16C41F432
:100EC0000051C164C16C01F400511691C16C41F034
:100ED0000201C164C06C11A900F002001690032049
:100EE000CDE9114000201390044800F08FF918B0AC
:100EF00010BD000000010050001002400004004836
:100F000010B590F8253000210122022B03D00421D6
:100F1000C163012122E003681C6824F00E041C60F8
:100F2000836C1C6824F480741C6003681C6824F0C3
:100F300001041C6090F84430046C03F01F0302FAB3
:100F400003F36360D0E913345C60436D33B11C6814
:100F500024F480741C60D0E916345C6080F825208D
:100F6000002280F82420084610BD70B590F8252096
:100F7000002401212346022A07D00422C26380F8FC
:100F8000251080F82430012429E00268156825F036
:100F90000E0515600268156825F001051560826C64
:100FA000156825F48075156090F84420056C02F0F2
:100FB0001F0201FA02F26A60D0E913255560426D02
:100FC00032B1156825F480751560D0E91625556095
:100FD00080F8251080F82430816B01B188472046C5
:100FE00070BDF0B4016C0C6801680D6890F8442085
:100FF00002F01F06042202FA06F3234211D06B0707
:101000000FD50B689B0603D40B6823F004030B6019
:1010100090F8441001F01F018A40016C4A60016B96
:101020001DE0022303FA06F727424FF0000C4FF0B1
:10103000010218D0AF0716D50C68A40605D40C68B9
:1010400024F00A040C6080F8252090F8441001F088
:101050001F018B40016C4B6080F824C0C16A0029DD
:101060001AD0F0BC08470823B340234214D02B0702
:1010700012D50B6823F00E030B6090F84410036C3C
:1010800001F01F0102FA01F15960C26380F82520C6
:1010900080F824C0416BE2E7F0BC704770B50400F3
:1010A0000CD02B4A21681420914209D2294A0A44C3
:1010B000B2FBF0F08000606427480AE0012070BDB8
:1010C000234A52420A44B2FBF0F080006064204898
:1010D00008382064022084F825000A6847F6F0707A
:1010E0008243D4E902031843D4E904352B4318435F
:1010F000A3691843E3691843236A1843104308603F
:101100002046FFF753FBA0680025B0F5804F00D1C3
:101110006560A16C20790860D4E9130141606068C2
:10112000401E032808D82046FFF760FB606D05606D
:10113000D4E91601416002E06565A565E565E563F2
:10114000012084F8250084F82450002070BD0000A0
:1011500008040240F8FFFDBF0000024070B50446DD
:1011600090F82400002501280CD0012084F82400E8
:1011700094F825600020012E06D084F82400022572
:10118000284670BD022070BD022684F82560E06309
:101190002068066826F0010606602046FFF738FB47
:1011A000206B00282068016802D041F00E0106E0A3
:1011B00021F0040101602068016841F00A0101602A
:1011C000A06C0168C90303D5016841F48071016016
:1011D000606D18B1016841F4807101602068016898
:1011E00041F001010160CBE770B5044600F03CF925
:1011F0000546601C02D004484068044400F034F9FD
:10120000401BA042FAD370BD4C0000202DE9F04FE6
:10121000DFF82092002301260324A9F1040B85B0F6
:101220000F2709F1040AABF1040EFAE006FA03F500
:101230002A407CD091F804C00CF0030CBCF1010FE3
:1012400002D0BCF1020F26D1D0F808C0CDF800C002
:101250004FEA430C04FA0CF8CDF810C0DDF800C0DA
:101260002CEA080CCDF800C0D1F80C80DDF810C0D5
:1012700008FA0CF8DDF800C048EA0C08C0F808804D
:10128000D0F804C02CEA050C0D79C5F300159D407B
:1012900045EA0C0545600D79ED43AD070ED0C568F4
:1012A0004FEA430804FA08FC25EA0C05D1F808C007
:1012B0000CFA08FC4CEA050CC0F80CC00D7905F0DE
:1012C0000305022D16D1DD0800EB850CCDF808C012
:1012D000DCF820805D074FEAD56C07FA0CF528EAA8
:1012E00005080D6905FA0CF5DDF808C045EA0805A2
:1012F000CCF8205005684FEA430CCDF808C004FA3A
:101300000CFC25EA0C0591F804C00CF00308DDF88C
:1013100008C008FA0CF848EA0508C0F800804D68D3
:1013200015F4403F7CD0444DD5F860C000E077E034
:101330004CF0010CC5F860C02D6E23F0030C05F0D5
:10134000010500953D4D65440295AD684FEA837CEB
:101350004FEA1C7807FA08FC25EA0C05B0F1904F1B
:1013600006D0DFF8DCC0604505D14FF0010C20E06D
:101370004FF0000C1DE0DFF8CCC0604502D14FF00B
:10138000020C16E0DFF8C0C0604502D14FF0030C3C
:101390000FE0DFF8B8C0604502D14FF0040C08E060
:1013A000DFF8ACC0604502D14FF0050C01E04FF012
:1013B000060C0CFA08FC4CEA050C029DC5F808C0A6
:1013C000D9F80050CC46D1F8048095435FEAC8288C
:1013D00000D51543CCF80050DAF80050D446D1F8C7
:1013E000048095435FEA882800D51543CCF8005067
:1013F000DBF80050DC46D1F8048095435FEA88387A
:1014000000D51543CCF80050DEF80050F446D1F872
:10141000048095435FEAC83800D51543CCF80050E6
:101420005B1C0A6832FA03F57FF400AF05B0BDE833
:10143000F08F00000804014000100240000001404D
:101440000004004800080048000C00480010004854
:10145000001400480069084000D0012070470AB11C
:101460008161704781627047014880687047000061
:101470004C00002002488168426811448160704736
:101480004C00002010B50024032000F073F80F205A
:1014900000F008F808B1012401E000F025F820462A
:1014A00010BD000070B50E4E05460024706898B15E
:1014B0004FF47A71B1FBF0F00A490968B1FBF0F022
:1014C00000F060FD40B9102D06D200222946501EC2
:1014D00000F030F8356000E00124204670BD0000C7
:1014E0004C000020580000200A4882B0016E41F0F4
:1014F00001010166016E01F001010091816D41F071
:1015000080518165806D00F08050009002B000F045
:10151000A1B8000000100240002809DB00F01F0203
:10152000012191404009800000F1E020C0F8001145
:1015300070470000F0B40E4B1B680C46C3F3022347
:10154000C3F10705042D00D90425191D072901D26F
:10155000002300E0DB1E012606FA05F1491E2140AA
:1015600099409E40761E16403143F0BC02F0F0BE1A
:101570000CED00E0064900F0070208684FF6FF0393
:10158000184040EA0220034A1043086070470000F8
:101590000CED00E00000FA052B492C4B0A683221C3
:1015A0004A432B4940B1B0F5007F086829D020F4A8
:1015B000C06040F480602CE00868C0F3412002283D
:1015C00004D051F8800F20F4807022E0D1F8800020
:1015D00020F48070C1F88000086820F4C06040F4F6
:1015E00000700860B2FBF3F0401C00E0401E4A6946
:1015F000520501D50028F9D1486940050AD50320D4
:101600007047C0F34120022806D051F8800F40F403
:101610008070086000207047D1F8800040F480702E
:10162000C1F88000086820F4C06040F400700860D1
:10163000B2FBF3F0401C00E0401E4A695205DBD5C6
:101640000028F9D1D8E700005800002040420F00E0
:10165000007000400248816841F480418160704719
:10166000007000402DE9F8430446006800269D4DB7
:1016700000035ED5A86D0027C00008D4A86D40F017
:101680008050A865A86D012700F080500090DFF819
:101690005892D9F8001041F48071C9F80010FFF792
:1016A000E3FE804606E000BFFFF7DEFEA0EB080089
:1016B00002282BD8D9F80000C005F5D5D5F8900040
:1016C00010F4407014D0216C814211D0D5F89000F4
:1016D000D5F8901020F4407041F48031C5F8901096
:1016E000D5F8901021F48031C5F89010C5F890001D
:1016F000C00711D0FFF7B8FE804641F2883907E0F5
:10170000FFF7B2FEA0EB0801494501D903260BE023
:10171000D5F890008007F3D5D5F89000216C20F41F
:1017200040700843C5F890001FB1A86D20F08050AC
:10173000A8652078C00707D0D5F88800616820F038
:1017400003000843C5F888002078800707D5D5F83E
:101750008800A16820F00C000843C5F888002078B4
:10176000400707D5D5F88800E16820F0300008432D
:10177000C5F888002078000707D5D5F888002169CA
:1017800020F0C0000843C5F888002078800607D5FF
:10179000D5F88800616920F440600843C5F88800E6
:1017A0002078400607D5D5F88800A16920F440507C
:1017B0000843C5F888002078000607D5D5F88800CA
:1017C000E16920F440400843C5F888002088C0053E
:1017D00007D5D5F88800216A20F440300843C5F8C1
:1017E00088002088800507D5D5F88800616A20F434
:1017F00040200843C5F88800208840050FD5D5F85B
:101800008800A16A20F440100843C5F88800A06A47
:10181000B0F5801F03D1E86840F48010E8602088AC
:1018200000050FD5D5F88800E16A20F44000084390
:10183000C5F88800E06AB0F5800F03D1E86840F48D
:101840008010E8602088C0040FD5D5F88800216B8F
:1018500020F040700843C5F88800206BB0F1807F0D
:1018600003D1E86840F48010E86020884FF0006100
:1018700080040ED5D5F88800626B20F040601043DC
:10188000C5F88800606B884203D1E86840F4801096
:10189000E860208840040ED5D5F88800A26B20F0BF
:1018A00040601043C5F88800A06B884203D1E86807
:1018B00040F48010E860208800040FD5D5F8880037
:1018C000E16B20F040500843C5F88800E06BB0F1B0
:1018D000805F03D1E86840F48030E8603046BDE8BE
:1018E000F883000000100240007000402DE9F0472E
:1018F0000E4605004FF0000725D0DFF8AC81D8F880
:10190000000000F00F00B0420CD2D8F8001021F017
:101910000F013143C8F80010D8F8000000F00F00A4
:10192000B04210D12968614CC80741F2883A5AD0B8
:101930006868DFF87C91032808D0022820682DD041
:10194000400500282CDB0120BDE8F08720688001DD
:10195000F9D5E06800F00302E068C0F30310401C12
:10196000032A19D0534A00BFB2FBF0F0E268C2F379
:1019700006225043E268C2F34162521C5200B0FB9F
:10198000F2F0484517D9A06810F0F00F0CD0880786
:1019900011D5A86840B10EE0474AE5E78003D0E7DB
:1019A00000F0B6F8484506D9A06820F0F00040F0F5
:1019B0008000A0608027A068696820F003000843C9
:1019C000A060FFF751FD814606E000BFFFF74CFD28
:1019D000A0EB090151453AD8A068696800F00C00F5
:1019E000B0EB810FF2D12868810714D5400703D5E9
:1019F000A06840F4E060A0602878000705D5A068E2
:101A000020F4605040F4E060A060A068A96820F075
:101A1000F000084304E0802F03D1A06820F0F0001C
:101A2000A060D8F80010404601F00F01B14216D96D
:101A3000016821F00F0131430160FFF715FD0746F2
:101A400007E000BFFFF710FDC11B514501D903207E
:101A50007AE7D8F8000000F00F00B042F2D1287801
:101A6000400705D5A068E96820F4E0600843A0605D
:101A70002878000706D5A068296920F4605040EA5C
:101A8000C100A06000F044F8A1680C4AC1F3031142
:101A9000515C01F01F01C84009490860094800680D
:101AA000BDE8F047FFF7FEBC0020024000100240F6
:101AB00000B4C4040024F40000366E01246700085A
:101AC000580000204C00002005480649006889683D
:101AD000054AC1F30221515C01F01F01C840704763
:101AE00058000020001002403467000805480649ED
:101AF00000688968054AC1F3C221515C01F01F01E9
:101B0000C8407047580000200010024034670008A9
:101B1000184910B58868C0F381021748012A0BD014
:101B20008A68164BC2F38102022A06D08A68C2F381
:101B30008102032A03D0002010BD184610BDCA68D8
:101B400002F00304CA68C2F30312521C032C02D031
:101B5000B0FBF2F001E0B3FBF2F0CA68C968C2F36F
:101B600006225043C1F34161491C4900B0FBF1F02A
:101B700010BD0000001002400024F40000366E0189
:101B80002DE9F84304007AD02078F84DC00747D0FB
:101B9000A868E96800F00C0001F003010C2802D0ED
:101BA000082817D001E0032914D06068B0F5803F01
:101BB00017D0B0F5A02F286817D020F48030286007
:101BC000286820F4802028606068E0B1FFF74CFCB2
:101BD000064614E02868800322D560680028D2D029
:101BE0001EE0286840F48030EDE740F48020286053
:101BF000F7E700BFFFF738FC801B642870D828681F
:101C00008003F7D50CE0FFF72FFC064605E000BF88
:101C1000FFF72AFC801B6428F0D828688003F7D4DB
:101C2000207880074CD5A868E96800F00C0001F026
:101C300003010C2802D004280DD001E002290AD0AB
:101C4000E068002828682BD040F480702860FFF7F7
:101C50000BFC064619E02868400502D5E06800281C
:101C600091D06868217C20F0FE4040EA0160686005
:101C7000BF480068FFF716FC002800D120E072E1A1
:101C8000FFF7F2FB801B0228B8D828684005F7D57B
:101C90006868217C20F0FE4040EA016068600FE047
:101CA00020F480702860FFF7DFFB064605E000BFE8
:101CB000FFF7DAFB801B0228A0D828684005F7D47C
:101CC0002078000729D560690028D5F8940013D042
:101CD00040F00100C5F89400FFF7C6FB064606E099
:101CE00090E000BFFFF7C0FB801B022886D8D5F824
:101CF00094008007F6D510E020F00100C5F89400AC
:101D0000FFF7B2FB064604E0FFF7AEFB801B02289C
:101D100078D8D5F894008007F6D42078400761D5AC
:101D2000A86D0026C00008D4A86D40F08050A865BA
:101D3000A86D012600F0805000908E480168C9050A
:101D400011D40168804641F480710160FFF78CFB7B
:101D5000074604E0FFF788FBC01B022852D8D8F8DA
:101D60000000C005F6D5A068012815D00528D5F8D3
:101D7000900016D020F00100C5F89000D5F8900032
:101D800020F00400C5F89000A06841F28838B8B18E
:101D9000FFF76AFB07460EE0D5F8900040F001001F
:101DA000F0E740F00400C5F89000F5E7FFF75CFBB2
:101DB000C11B414526D8D5F890008007F6D50CE028
:101DC000FFF752FB074604E0FFF74EFBC11B4145FE
:101DD00018D8D5F890008007F6D41EB1A86D20F071
:101DE0008050A8652078800629D5A0690028D5F8FC
:101DF000980013D040F00100C5F89800FFF734FBBD
:101E0000064606E075E000BFFFF72EFB801B0228A8
:101E10006FD8D5F898008007F6D510E020F00100C3
:101E2000C5F89800FFF720FB064604E0FFF71CFB0F
:101E3000801B02285DD8D5F898008007F6D4E069A9
:101E4000F0B3A968C1F3810103295DD00228286895
:101E500020F08070286003D0FFF706FB04464BE0BB
:101E6000FFF702FB064604E0FFF7FEFA801B02289C
:101E70003FD828688001F7D4F4E908016FF00F0219
:101E800002EB01110843218A5204490802EB415137
:101E9000A26841EA02210843217D4FF07E424908B1
:101EA00002EB41610843217B40EAC160E968324AA4
:101EB00011400843E860286840F08070286000E026
:101EC0005EE0E86840F08070E860FFF7CDFA044615
:101ED00005E000BFFFF7C8FA001B022809D82868F0
:101EE0008001F7D54CE000BFFFF7BEFA001B0228C7
:101EF00002D90320BDE8F88328688001F4D4E8689B
:101F00001E490840E8603BE00128F3D0E868226AF7
:101F100000F00301914226D1616A00F0F00209014C
:101F2000103991421FD1A26A00F4FE41B1EB022F99
:101F300019D194F82C2000F07841B1EBC26F12D186
:101F4000218E00F4C00249084905A1F50011914213
:101F500009D194F8341000F0C06049084906A1F195
:101F6000007181420CD00120C4E700000010024043
:101F70004C000020007000400C809F01FCFFEEFE32
:101F80000020B7E710B5401EB0F1807F01D30120DB
:101F900010BD4FF0E02460610F21601702F0D8F906
:101FA0000020A06107202061002010BD704770470D
:101FB0007047704770477047F0B590F83C20012A91
:101FC0003AD0012580F83C50022280F83D20036879
:101FD0005A689C68194E1A4FB34201D0BB4204D1D3
:101FE00022F4700C4A6842EA0C02DFF858C002EA98
:101FF0000C02D1F800C04CEA020CC3F804C002681D
:10200000B2420DD0B2F1804F0AD00F4B9A4207D0A6
:102010000E4B9A4204D0BA4202D00D4B9A4204D1E0
:10202000896824F080031943916080F83D500021B5
:1020300080F83C100846F0BD0220F0BD002C0140A5
:10204000003401408FFFFFFD000400400008004005
:1020500000400140704710B5040003D094F83D00E3
:1020600010B107E0012010BD002084F83C0020469C
:1020700000F022F8022084F83D00211D206801F0C4
:1020800061FC012084F8480084F83E0084F83F0099
:1020900084F8400084F8410084F8420084F843004A
:1020A00084F8440084F8450084F8460084F847002A
:1020B00084F83D00002010BD30B587B004461421DF
:1020C0006846FEF7DFF822680024304902254FF009
:1020D0009040B2F1804F37D02D4B9A4232D18A6D69
:1020E00042F002028A658A6D02F002020592CA6C11
:1020F00042F00102CA64CA6C02F001020592CA6C85
:1021000042F00202CA64C96C01F00201059180210B
:102110000091CDE901546946CDE90345FFF776F812
:1021200010200090CDE9015469461A48CDE90345D5
:10213000FFF76CF8002211461D20FFF7FBF91D2068
:10214000FFF7EAF907B030BD8A6D42F001028A65F7
:102150008A6D02F001020592CA6C42F00102CA6463
:10216000C96C01F00101059148F202010091CDE92D
:1021700001540121CDE903416946FFF747F80022E8
:1021800011461C20FFF7D6F91C20D9E700100240A9
:10219000000400400004004870B5044690F83C007C
:1021A0000025012814D0012684F83C60022084F820
:1021B0003D0022689068364B184020F47F409060C4
:1021C000086870282ED010DC10F00F0F03D021E02B
:1021D0004FF0020070BD4FEA2012072A1AD2DFE842
:1021E00002F0525252524A3840002A4BC21A9842C8
:1021F00049D009DCB0F5805F0DD0B0F5005F1CD090
:10220000B0F1101F06D13EE0102A3CD0202A3AD06F
:10221000502A38D0012584F83D60002084F83C0025
:10222000284670BDCB68D1E90121206801F0F5FB9B
:102230002068816841F0770109E0CB68D1E901218C
:10224000206801F0EAFB2068816841F480418160E8
:10225000E1E7CA684968206801F05CFC5021206809
:1022600006E0CA684968206801F09CFC602120688B
:1022700001F0DEFBCFE7CA684968206801F04AFC3C
:1022800040212068F4E7226801461046F0E700008C
:1022900088FFCEFF200010000F4A1049DFED100A22
:1022A00090420AD11268526B8A6000EE102AB8EE92
:1022B000400A80EE801A81ED031A0A4A90420AD140
:1022C0001068406B086100EE100AB8EE400A80EE1C
:1022D000801A81ED051A70473402002008000020A2
:1022E00000247449800200202DE9F041054690F851
:1022F0003C0000260C46012810D0012085F83C0047
:1023000072B1042A1CD0082A2CD00C2A50D00126E5
:10231000002085F83C003046BDE8F0810220FBE754
:10232000D4E90012E368286801F006FC2868816996
:1023300021F00C01816128688169A26811430FE0D6
:10234000D4E90012E368286801F03EFC286881693E
:1023500021F44061816128688169A26841EA022113
:102360008161D5E72868D4E9002C277B036A016ADC
:1023700021F480710162C16923F4206321F003011B
:1023800041EA0C0121F0F00C39074FF420674CEAC8
:10239000116107EA02221A43C16102622868C16919
:1023A00021F00C01C1612868C169A26811432BE0CA
:1023B0002868D4E90021E768036AD0F820C02CF42B
:1023C000805CC0F820C0D0F81CC023F420432CF45B
:1023D000407C4CEA012121F4704C4FF6FF7101EA78
:1023E00007314FF4204741EA0C0107EA02321A4351
:1023F000C16102622868C16921F44061C161286835
:10240000C169A26841EA0221C16181E710B50400F7
:1024100003D094F83D0010B107E0012010BD00206A
:1024200084F83C00204600F022F8022084F83D00A9
:10243000211D206801F086FA012084F8480084F804
:102440003E0084F83F0084F8400084F8410084F89E
:10245000420084F8430084F8440084F8450084F87E
:10246000460084F8470084F83D00002010BD704706
:1024700030B50446002571B1042911D0082914D0C3
:102480000C2917D0102918D094F8430094F847204D
:10249000012817D114E094F83E0094F84420F7E79F
:1024A00094F83F0094F84520F2E794F8400094F83F
:1024B0004620EDE794F84100E8E794F84200E5E7AC
:1024C000012A01D0012030BD022079B1042916D0A3
:1024D00008291DD00C2949D010294AD084F843007E
:1024E00084F847000C2947D001253DE084F83E00E0
:1024F00084F844002068C26842F0020210E084F8C8
:102500003F0084F845002068C26842F0040207E0FA
:1025100084F8400084F846002068C26842F008024F
:10252000C2600122206801F06BFA164920688842D7
:102530000ED0B0F1804F0BD01349884208D0134918
:10254000884205D01249884202D01249884207D1F8
:102550008168114A1140062906D0B1F5803F03D0A9
:10256000016841F001010160284630BD84F8410056
:10257000B6E784F84200B3E72068C26842F0100270
:10258000CEE70000002C014000040040000800409D
:102590000034014000400140070001002DE9F041F6
:1025A00004460068C66805694FF00007A90713D5FF
:1025B000B10711D5F91E01610120207720688069DB
:1025C0008007204602D0FFF767FE04E000F0B7F86E
:1025D000204600F0B5F82777680716D5700714D5A0
:1025E00021686FF00400086102202077206880696C
:1025F00010F4407F204602D0FFF74EFE04E000F0CA
:102600009EF8204600F09CF82777280715D530075C
:1026100013D521686FF00800086104202077206836
:10262000C0698007204602D0FFF736FE04E000F0C4
:1026300086F8204600F084F82777E80616D5F006DD
:1026400014D521686FF010000861082020772068F9
:10265000C06910F4407F204602D0FFF71DFE04E061
:1026600000F06DF8204600F06BF82777E80708D0F7
:10267000F00706D021686FF001000861204600F0E5
:1026800060F8280601D4A80408D5300606D52168CC
:102690006FF4025008612046FFF789FCE80508D571
:1026A000300606D521686FF4807008612046FFF778
:1026B0007DFC680608D5700606D521686FF04000DD
:1026C0000861204600F069F8A80608D5B00606D5CE
:1026D00021686FF0200008612046FFF769FCE802DE
:1026E00008D5F00206D521686FF4801008612046F5
:1026F000FFF760FCA80208D5B00206D521686FF488
:10270000001008612046FFF754FC680208D57002EB
:1027100006D521686FF4800008612046FFF74BFC66
:1027200028020AD5300208D521686FF4000008613C
:102730002046BDE8F041FFF78DBCBDE8F081704751
:102740007047704770B5044690F83C00012812D0DD
:10275000012584F83C50022084F83D00204601F019
:1027600071F901004FF0000007D084F83D5084F863
:102770003C00012070BD022070BD2168CA6822F0B3
:102780004002CA602168CA6822F48042CA6084F8A4
:102790003D5084F83C00002070BD704790F88410D4
:1027A000012918D0012180F884102421C0F8881054
:1027B00001680A680B6823F001030B6022F00051E6
:1027C00000224266036819602021C0F8881080F852
:1027D0008420104670470220704710B50446D0F898
:1027E0008C00202801D0022010BD61B15AB1012017
:1027F000E06600202067204601F0E0FC0028F3D1CD
:10280000E16E012901D0012010BD22681021116262
:10281000226852E8001F41F0100142E80013002B2B
:10282000F6D110BD10B5094A90420ED1084A09A050
:1028300001F06AFD1E2206490448FFF7CEFF0B484F
:102840000068016821F00401016010BDCC02002085
:1028500060000020BDD3CAD5B5BD2564B8F6D7D673
:10286000B7FBA3BA25730D0A000000006003002027
:10287000704770B5044690F8840001281DD00120EF
:1028800084F884002420C4F8880020680568026861
:1028900022F0010202602068826822F060620A432E
:1028A0008260204601F0ACF9206805602020C4F861
:1028B0008800002084F8840070BD022070BD70B5CF
:1028C000044690F8840001281DD0012084F884007B
:1028D0002420C4F8880020680568026822F00102FC
:1028E00002602068826822F060420A4382602046CB
:1028F00001F086F9206805602020C4F888000020D7
:1029000084F8840070BD022070BD70477047704726
:102910002DE9F04103680446D86919689A6840F6C1
:102920000F0528424FF000054FF002060AD1870636
:102930007ED501F0200702F0805C57EA0C0777D0C3
:10294000616F3AE1B24FDFF8CCC2174001EA0C0CDC
:1029500057EA0C0C6CD05FEAC07C0CD05FEAC15C1B
:1029600009D54FF0010CC3F820C0D4F8903043F0E3
:102970000103C4F89030830709D5D30707D0236833
:102980001E62D4F8903043F00403C4F8903043073B
:102990000AD5D30708D0266804233362D4F89030D0
:1029A00043F00203C4F8903003070CD501F0200374
:1029B0003B4308D0266808233362D4F8903043F0B4
:1029C0000803C4F8903003050BD54B0109D52668E0
:1029D0004FF400633362D4F8903043F02003C4F81E
:1029E0009030D4F89030002B3DD0800609D501F00E
:1029F000200002F08051084303D0616F09B12046E6
:102A00008847D4F8900021688968490602D410F0FC
:102A1000280F2AD0204601F055FA20688068400629
:102A20001ED52068083050E8001F21F0400100E06A
:102A300021E040E80012002AF3D1D4F8800078B1F8
:102A400075498163D4F88000FEF78FFA00280AD018
:102A5000D4F88000816B00E02046BDE8F0410847D3
:102A60002046FFF754FFBDE8F0812046FFF74FFFF7
:102A7000C4F89050F7E7D4F86CC02027BCF1010FE0
:102A80007ED15FEAC06C7BD55FEAC16C78D510203F
:102A9000186220688068400645D5D4F88010086820
:102AA00040680004000CDED0B4F85C208242DAD921
:102AB000A4F85E000868006880062CD4216851E8FC
:102AC000000F20F4807041E80002002AF6D120684F
:102AD000083050E8001F21F0010140E80012002AF0
:102AE000F5D12068083050E8001F21F0400140E88F
:102AF0000012002AF5D1C4F88C70E566206850E811
:102B0000001F21F0100140E80012002AF6D1D4F88D
:102B10008000FEF7F5F92667B4F85C00B4F85E10A3
:102B2000401A81B230E0B4F85C00B4F85E10401A8C
:102B300081B2B4F85E00002895D0002993D02268B5
:102B400052E8000F20F4907042E80003002BF6D109
:102B50002F4BDB432068083050E8002F1A4040E834
:102B6000002CBCF1000FF5D1C4F88C70E5666567E8
:102B7000226852E8000F20F0100042E8000300E055
:102B800006E0002BF4D126672046FFF74BFE6AE7EC
:102B9000C60209D5560207D54FF4801018622046A8
:102BA000BDE8F041FFF7B2BE03060AD501F080038D
:102BB00002F40002134304D0A16F00297FF44CAF4C
:102BC00051E7420611D54A060FD52046026852E861
:102BD000001F21F0400142E80013002BF6D1C0F89D
:102BE0008870856700F009F93DE7020206D54A00C2
:102BF00004D52046BDE8F041FFF787BEC001C6D529
:102C00000029C4DA2046BDE8F041FFF731BE0000DC
:102C10000100001020010004B93D000810B50400B7
:102C200003D0D4F8880010B107E0012010BD0020C7
:102C300084F88400204600F027F82420C4F8880097
:102C40002068016821F001010160A06A10B12046EE
:102C500000F0F8FF204601F077F90128E6D020685F
:102C6000416821F4904141602068816821F02A0187
:102C700081602068016841F0010101602046BDE8E3
:102C8000104001F043B8000070B598B0064614211A
:102C900011A8FDF7F7FA44216846FDF7F3FA264933
:102CA0003068884246D101200025CDE900056846FC
:102CB000FEF7D8FC08B1FDF7D9FD2049086E40F4B5
:102CC00080400866086E00F480401690C86C40F0A2
:102CD0000100C864C86C11A900F0010016904FF4FF
:102CE000C06011900220CDE912050720CDE91450F3
:102CF0004FF09040FEF78AFA124C114820601820DD
:102D0000C4E901058020C4E903506561A561E5615E
:102D100020462562FEF7C2F908B1FDF7A7FDC6F807
:102D2000804000220E212520A662FEF703FC25200C
:102D3000FEF7F2FB18B070BD0038014000100240F1
:102D40000800024060030020704770472DE9F843F7
:102D50000446D0F88800984616460D46202802D032
:102D60000220BDE8F883A5B19EB10020C4F8900010
:102D70002120C4F888001834FEF776FBA687814628
:102D8000E68754F8100C2027183CB0F5805F02D07D
:102D900003E00120E5E7206910B12E46002510E090
:102DA00000260EE08021204601F05CFAC0B9DEB1B9
:102DB00016F8010B21688862B4F85600401EA4F88A
:102DC0005600B4F856004B464FF00002CDF8008094
:102DD0000028E7D14FF04001204601F043FA40B10E
:102DE000C4F888700320BCE735F8020BC0F3080074
:102DF000E0E7C4F888700020B3E77047FEE7000002
:102E000000B585B014216846FDF73CFA4FF6FF7017
:102E1000009000200321CDE902010190694602489B
:102E2000FEF7F4F905B000BD0008004800B585B014
:102E300014216846FDF726FA4FF6FF700090012036
:102E40000190032003900020029069460248FEF79B
:102E5000DDF905B000BD00000008004870B5002491
:102E600006462146204600F003F900F041F94FF4F0
:102E70009635304600F010F9641CAC42F9D370BDB1
:102E800030B587B014216846FDF7FCF91E48C16CC7
:102E900041F00401C164C16C01F004010591C16CF1
:102EA00041F00101C164C16C01F001010591C16CE7
:102EB00041F00201C164C06C012500F002000590E0
:102EC0004FF44870CDE9000500240394694602944C
:102ED0000E48FEF79BF9280203940090CDE90154B7
:102EE0004FF0904469462046FEF790F9FFF79EFFA9
:102EF000A06940F48070A06104481830016841F472
:102F00000871016007B030BD0010024000040048A5
:102F1000203AD2B2034B02EB420203EB021200F062
:102F200019B800002C550008F0B50E4607460025DC
:102F300040F23F1407E021463846FFF7E9FF103C16
:102F40006D1CA4B2761C3278002A01D0142DF2D365
:102F5000F0BD00002DE9F04791468A460026044660
:102F600000F086F8DFF84080012700BF00F0C0F8CD
:102F70005FF0000539F8160007FA05F108424046EF
:102F800001D1408800E0008800F086F86D1C102D0B
:102F9000F0D3641CE4B25146204600F069F8761C78
:102FA000182EE3D3BDE8F0870000002010B5FFF72E
:102FB00067FF002000F014F8084CA080A088A0F55E
:102FC0000241303906D000F071FB002000F008F813
:102FD000A08010BD00F0E1FAF7E70000000000203B
:102FE00070B51D490A6842F400720A600A6842F42A
:102FF00080720A60184C103C226842F02002226065
:10300000164A1060086840F02000086000BF00BF4A
:1030100000BF206840F020002060206840F48070ED
:103020002060FFF7EDFE4FF09041886A40F4807019
:10303000886200BF00BF00BF0848001F006885B25B
:10304000886940F480708861FFF7F0FE206840F4E2
:1030500000702060284670BD28040048140800480D
:1030600001B5BDF800000149488008BD00000020FE
:1030700010B50C460146202000F068F82146BDE856
:103080001040212000F062B801B5BDF800000149F0
:10309000088008BD00000020134A116841F4007147
:1030A0001160114910390B6843F480730B600B6891
:1030B00043F020030B600D4B1860106840F02000B7
:1030C000106000BF00BF00BF086840F0200008602B
:1030D000086840F48070086000BF00BF00BF086847
:1030E00040F4007008607047280400481408004845
:1030F0001449086840F400700860086840F4807063
:10310000086010481038026842F0200202600E4B3E
:1031100022221A600A6842F020020A6000BF00BF43
:1031200000BF016841F020010160016841F4807135
:10313000016000BF00BF00BF016841F40071016081
:10314000704700002804004814080048184B10B5C8
:103150001A6842F400721A601A6842F480721A60A7
:10316000134A103A146844F020041460114C206093
:10317000186840F02000186000BF00BF00BF106852
:1031800040F020001060106840F4807010602160F2
:10319000186840F02000186000BF00BF00BF106832
:1031A00040F020001060106840F48070106010BD86
:1031B000280400481408004800EB8100006E00F06D
:1031C000F84070478068C0F3C00070478068C0F363
:1031D00080007047042303EAD15310B518444369B3
:1031E000C1F3045107248C40A3438A401343436135
:1031F00010BD00EB8100016E21F00041114301661A
:103200007047000030B589B020216846FDF73AF8D4
:1032100019481849002401604902C0E90114C4603A
:1032200004250461C0E90545047744770121016262
:1032300080F82440C462046380F83840C46380F896
:103240004040FDF727FD08B1FDF710FB0B4800904B
:103250000620CDE901047F200594CDE903056946E8
:103260000548FDF705FB002801D0FDF7FFFA09B07E
:1032700030BD000000010050C80100200080F03E79
:103280000D4808B5816C41F004018164816C01F046
:1032900004010091816C41F001018164806C002285
:1032A00000F00100009011460B20FEF743F9BDE845
:1032B00008400B20FEF730B900100240F0B587B08F
:1032C00014216846FCF7DEFF2D48C16C41F0040173
:1032D000C164C16C01F004010591C16C41F0200191
:1032E000C164C16C01F020010591C16C41F0010184
:1032F000C164C16C01F001010591C16C41F0020192
:10330000C164C16C01F002010591C16C41F008017A
:10331000C164C06C1B4E00F008004FF47F44059060
:10332000012221463046FEF79AF8174F0022042169
:103330003846FEF794F80125CDE900450024CDE993
:10334000025469463046FDF761FFCDE900546946F5
:103350004FF090400294FDF759FF0720CDE900049B
:1033600069460A480294FDF751FF0420CDE90005A3
:10337000CDE9025469463846FDF748FF07B0F0BD75
:103380000010024000080048000C004800040048FB
:1033900010B590B0002409940A940B94142104A849
:1033A0000C94FCF76FFF2C480D940F940E9400942E
:1033B000019402944FF08041039401604F21C0E9D1
:1033C0000114611EC0E9031480218161FEF743FEF0
:1033D00008B1FDF74BFA4FF48050099009A91E4837
:1033E000FEF7DAFE08B1FDF741FA1B48FFF70EF8C9
:1033F00008B1FDF73BFA042004905020CDE9050404
:1034000004A915480894FFF79DF908B1FDF72EFAB5
:103410000D940DA910480F94FEF7CEFD08B1FDF7ED
:1034200025FA0120CDE900400294002269460A48AD
:103430000394FEF759FF08B1FDF718FA0220009037
:103440000190042269460448FEF74EFF002801D08F
:10345000FDF70CFA10B010BD3402002010B590B08A
:10346000002409940A940B94142104A80C94FCF7EA
:1034700009FF2D480D940F940E940094019402942A
:103480002849039401604F21C0E901144FF6FF71F0
:10349000C0E903148461FEF7DEFD08B1FDF7E6F92B
:1034A0004FF48050099009A91F48FEF775FE08B136
:1034B000FDF7DCF91C48FEF7A9FF08B1FDF7D6F9C6
:1034C000042004905020CDE9050404A9164808946E
:1034D000FFF738F908B1FDF7C9F90D940DA91248A5
:1034E0000F94FEF769FD08B1FDF7C0F90120CDE9A1
:1034F00000400294002269460B480394FEF7F4FE54
:1035000008B1FDF7B3F9022000900190042269464A
:103510000548FEF7E9FE002801D0FDF7A7F910B035
:1035200010BD00000004004080020020184810B5C3
:10353000164901604FF416514160002181600C2250
:10354000C160C0E904128161C161016241628162AE
:10355000FFF764FB08B1FDF789F900210C48FFF77C
:10356000AEF908B1FDF782F900210948FFF781F9AA
:1035700008B1FDF77BF90648FFF710F9002803D0E2
:10358000BDE81040FDF772B910BD000000380140E1
:10359000CC020020FEE7FEE7704730B50121002095
:1035A000FFF7D4FD4FF47A70FDF752F900210120A6
:1035B000FFF7CCFD41F290711020FFF7C7FD4FF4EB
:1035C0001C516020FFF7C2FD01216120FFF7BEFD05
:1035D00002214620FFF7BAFD48F210011320FFF741
:1035E000B5FD48F2FE011220FFF7B0FD4FF4A061D7
:1035F0000220FFF7ABFD41F230010320FFF7A6FDEB
:1036000040F2033421463020FFF7A0FD214631204F
:10361000FFF79CFD21463220FFF798FDE51E294665
:103620003320FFF793FD03213420FFF78FFD214660
:103630003520FFF78BFD14213620FFF787FD21464B
:103640003720FFF783FD21463820FFF77FFD214615
:103650003920FFF77BFD29463A20FFF777FD03214C
:103660003B20FFF773FD21463C20FFF76FFD4FF431
:10367000A0513D20FFF76AFD4FF400719220FFF743
:1036800065FD21469320FFF761FD40F60D01902076
:10369000FFF75CFD41F218010320FFF757FDBDE87D
:1036A000304040F273110720FFF750BD10B543F2D0
:1036B0000801E320FFF74AFD1221E720FFF746FD4E
:1036C00041F23121EF20FFF741FD00210120FFF7FA
:1036D0003DFD4FF4E0610220FFF738FD41F230017B
:1036E0000320FFF733FD00210420FFF72FFD40F2F8
:1036F00007210820FFF72AFD00210920FFF726FDFA
:1037000000210A20FFF722FD00210C20FFF71EFDFB
:1037100000210D20FFF71AFD00210F20FFF716FDF5
:1037200000211020FFF712FD07211120FFF70EFDE9
:1037300000211220FFF70AFD00211320FFF706FDEC
:10374000C820FDF751FD41F290611020FFF7FEFC0B
:1037500040F227211120FFF7F9FC3220FDF744FD4C
:103760001D211220FFF7F2FC3220FDF73DFD4FF442
:1037700000611320FFF7EAFC14212920FFF7E6FC83
:103780000B212B20FFF7E2FC3220FDF72DFD00215D
:103790002020FFF7DBFC00212120FFF7D7FC0721C9
:1037A0003020FFF7D3FC40F207713120FFF7CEFC49
:1037B00006213220FFF7CAFC40F204713520FFF7E2
:1037C000C5FC41F604713620FFF7C0FC0421372008
:1037D000FFF7BCFC00213820FFF7B8FC40F206716F
:1037E0003920FFF7B3FC40F201713C20FFF7AEFC3B
:1037F0000F213D20FFF7AAFC00215020FFF7A6FC77
:10380000EF215120FFF7A2FC00215220FFF79EFC80
:1038100040F23F115320FFF799FC4FF41C516020F8
:10382000FFF794FC01216120FFF790FC00216A2042
:10383000FFF78CFC00218020FFF788FC002181200D
:10384000FFF784FC00218220FFF780FC0021832009
:10385000FFF77CFC00218420FFF778FC0021852005
:10386000FFF774FC10219020FFF770FC00219220DC
:10387000FFF76CFC03219320FFF768FC4FF488717D
:103880009520FFF763FC00219720FFF75FFC0021E4
:103890009820FFF75BFC41F218010320FFF756FC6C
:1038A000BDE8104040F273110720FFF74FBC70478E
:1038B000FDF7E0BD00B593B038216846FCF7E2FCA7
:1038C00014210EA8FCF7DEFC0020FDF765FE0220A7
:1038D000C1010391402104910421CDE90801009028
:1038E0005521CDE90A1007900C900D906846FEF71F
:1038F00047F908B172B6FEE70F200E9003200F9033
:10390000002010901190129004210EA8FDF7EEFFF8
:10391000002801D072B6FEE713B000BD024801686E
:1039200041F470010160704788ED00E00148FEF746
:1039300035BE0000340200200148FEF72FBE000013
:10394000800200202DE9F0430268264B264D274EC9
:10395000274C4FF08049984207D0484505D0A842EF
:1039600003D0B04201D0A04203D122F070074A68D0
:103970003A43204FDFF880C0DFF8808098420DD0B6
:1039800048450BD0A84209D0B04207D0A04205D08C
:10399000B84203D0604501D0404503D122F44075C0
:1039A000CA682A434D6922F080022A4302608A686D
:1039B000C2620A688262984207D0A04205D0B8422B
:1039C00003D0604501D0404501D10969016301215F
:1039D00041610169C90703D0016921F00101016159
:1039E000BDE8F083002C01400004004000080040C6
:1039F00000340140004001400044014000480140C3
:103A000010B501F01F030121046A99408C43046240
:103A1000016A9A401143016210BD10B5846842EA00
:103A2000032224F47F440A432243826010BD000035
:103A30008268034B1A400A4342F0070181607047D5
:103A40008FFFCFFF70B505680024AA682E4B1A407F
:103A50004B6813432D4A13400A681A43AA604A6808
:103A6000602A4AD00DDC302A1FD005DCEAB1102ACA
:103A70001BD0202A18D118E0402A1FD0502A13D179
:103A800035E0234D531BAA420FD009DC702A0ED01B
:103A9000B2F1101F09D0203AB2F5801F04D104E022
:103AA000102B02D0402B00D00124204670BD0B69A2
:103AB000D1E902210068FFF7B0FFF6E70A68052A9E
:103AC00013D0B2F1011F10D00268136A156A25F0F5
:103AD0000105156202689569096925F0F00545EA56
:103AE0000111916100680362DFE7012070BD0A697E
:103AF0008968006800F00EF8D7E70A6989680068ED
:103B000000F050F8D1E700008FFFCFFFF8FFFEFF75
:103B10003000100010B5036A046A24F00104046246
:103B2000846924F0F00444EA021423F00A020A43F0
:103B30008461026210BD000070B5056A046A24F059
:103B4000010404628469124EB0420ED0B0F1804F7D
:103B50000BD0104EB04208D00F4EB04205D00F4EE1
:103B6000B04202D00E4EB04203D124F003041443FD
:103B700001E044F001041A0724F0F00444EA126260
:103B800025F00A0301F00A0119438261016270BD48
:103B9000002C0140000400400008004000340140B7
:103BA0000040014010B5036A046A24F01004046266
:103BB000846923F0A00324F4704444EA023243EA07
:103BC00001118261016210BD30B5046A056A25F0F9
:103BD00010050562856925F4407545EA022222F444
:103BE00070454FF6FF7202EA033224F0A0032A4325
:103BF000A02404EA011119438261016230BD000072
:103C000030B5416EB9B1026891689268C1F3426102
:103C10000B4B520F9C5CE50003F10804A25CB5FB62
:103C2000F2F2A0F86A205A5C615CD200B2FBF1F1BA
:103C3000A0F8681030BD0121A0F86A10F8E7000074
:103C40001467000890F82810090706D501684A682B
:103C5000836B22F400421A434A6090F82810C90787
:103C600006D001684A68C36A22F400321A434A60E7
:103C700090F82810890706D501684A68036B22F47A
:103C800080321A434A6090F82810490706D5016827
:103C90004A68436B22F480221A434A6090F8281045
:103CA000C90606D501688A68C36B22F480521A439C
:103CB0008A6090F82810890606D501688A68036C26
:103CC00022F400521A438A6090F82810490611D550
:103CD00001684A68436C22F480121A434A60416CBE
:103CE000B1F5801F06D101684A68836C22F4C002D6
:103CF0001A434A6090F82810090606D501684A68F8
:103D0000C06C22F4002202434A6070472DE9F84358
:103D100000260446C0F89060FDF7A6FB80462068A8
:103D200000684FF0200500076FF07E4713D543462B
:103D3000002229042046009700F094FA58B1216827
:103D400051E8000F20F0800041E80002002AF6D17F
:103D5000C4F8885021E020680068400722D5434617
:103D600000224FF480012046009700F07BFAC8B192
:103D7000216851E8000F20F4907041E80002002A09
:103D8000F6D12068083050E8001F21F0010140E81A
:103D90000012002AF5D1C4F88C5084F88460032006
:103DA000BDE8F883C4F88850C4F88C5044F86C6FB0
:103DB000666026760020F3E710B5806A0021A0F83F
:103DC0005E10A0F85610FEF7A2FD10BD70B5846A13
:103DD000D4F88800D4F88C50216889684FF0000628
:103DE000090606D5212804D1A4F85660204600F023
:103DF00093F820688068400606D5222D04D1A4F8E7
:103E00005E60204600F05EF8D4F8900040F01000AC
:103E1000C4F890002046FEF77AFD70BD10B501464B
:103E2000806A096809684FF0000289062DD4A0F85D
:103E30005E20036853E8001F21F4807143E80014FA
:103E4000002CF6D10168083151E8003F23F001034E
:103E500041E80034002CF5D10168083151E8003FF9
:103E600023F0400341E80034002CF5D12021C0F8B4
:103E70008C10C16E012908D1016851E8003F23F080
:103E8000100341E80034002CF6D10267C16E01290D
:103E900002D0FEF759FF10BDB0F85C10FEF7C2FC6F
:103EA00010BD10B5806A01210167C16E012902D0E1
:103EB000FEF74BFF10BDB0F85C104908FEF7B2FCEE
:103EC00010BD000010B5026852E8001F21F4907187
:103ED00042E80013002BF6D10E4B0268083252E87C
:103EE000001F194042E80014002CF6D1C16E0129D0
:103EF00008D1016851E8002F22F0100241E80023A8
:103F0000002BF6D12021C0F88C100021C16641673A
:103F100010BD0000FEFFFFEF026852E8001F21F015
:103F2000C00142E80013002BF6D10168083151E8C6
:103F3000002F22F4000241E80023002BF5D12021BC
:103F4000C0F88810704700002DE9F0410446016870
:103F500080682269E3691043626900251A431043AF
:103F6000DFF82CC20A688B4B1A4002430A602068B3
:103F70004168E26821F44051114341602168A06921
:103F8000614501D0226A10438A68834B1A4002437C
:103F90008A602068C16A626A21F00F011143C16220
:103FA0007E4923687E488B420DD1D0F8880010F0FE
:103FB000030006D0012855D0022842D003283FD163
:103FC00052E001203DE077498B420BD1D0F88800C8
:103FD00010F00C0035D0042833D0082840D00C282D
:103FE0002ED141E070498B420BD1D0F8880010F0FF
:103FF000300026D0102835D0202831D030281FD1CD
:1040000032E06A498B420BD1D0F8880010F0C00032
:1040100017D0402826D0802822D0C02810D123E0F5
:1040200063450DD1D0F8880010F4406009D0B0F598
:10403000806F17D0B0F5006F12D0B0F5406F13D07D
:1040400010205B495B4F00264FF4004263453BD193
:1040500060B1022813D004280BD0082872D10DE0DB
:104060000220EEE70420ECE70820EAE7FDF72CFD4C
:1040700001E0FDF74DFD010001D17CE01146606AD1
:1040800037F810206768B1FBF2F007EB4703834273
:1040900070D8B0EB073F6DD8002308461946FCF7EF
:1040A000B9F8090241EA106102027808101871415A
:1040B0003A460023FCF7AEF83F4AA0F54071914222
:1040C00058D82168C86056E0E3694FF6EF7893420C
:1040D0002CD109284ED2DFE800F00508114D0D4D16
:1040E0004D4D1000FDF7F0FC01E0FDF7FFFC010075
:1040F00004D140E0FDF70CFDF9E71146606A37F89E
:104100001000B1FBF0F04100606801EB5001B1FB21
:10411000F0F0A0F1100141452CD84FF6F0710140AC
:10412000C0F3420001432068C16024E0092821D285
:10413000DFE800F0050912200E2020201100FDF715
:10414000C3FC02E016E0FDF7D1FC010004D112E04F
:10415000FDF7DEFCF9E71146606A37F81000B1FBA5
:10416000F0F1606801EB5001B1FBF0F0A0F110013B
:1041700041450AD901250120A4F86A0024F8680FF6
:104180002846E6602661BDE8F08180B299E700002C
:1041900000800040F369FFCFFFF4FF1100380140B9
:1041A000001002400044004000480040004C004025
:1041B0000024F400FC660008FFFC0F0070B5816568
:1041C000A0F85C2000210446C0F890102220C4F81A
:1041D0008C00D4F88000F0B11F4BC362D4F880305B
:1041E0001E481863D4F880301D485863D4F8800006
:1041F00013468163A56D21682A462431D4F88000D6
:10420000FCF7ACFF38B11020C4F890002020C4F8AF
:104210008C00012070BD206940B1216851E8000F79
:1042200040F4807041E80002002AF6D1206808308E
:1042300050E8001F41F0010140E80012002AF5D1CA
:104240002068083050E8001F41F0400140E80012AB
:10425000002AF5D1002070BD1D3E0008A33E0008D5
:10426000CD3D00082DE9F047994617460D46044616
:104270004FF00008089E33E0701C31D0FDF7F4F8D1
:10428000A0EB0900B04218D8BEB120680168490708
:1042900026D5802D24D0402D22D0C169C9430907DD
:1042A0000DD4082505622046FFF70CFEC4F8905097
:1042B00084F884800120BDE8F0870320FBE7C06913
:1042C000C04300050CD421684FF40060086220460A
:1042D000FFF7F8FD2020C4F8900084F88480ECE714
:1042E0002068C06935EA000004D00020B842C3D07D
:1042F0000020E0E70120F9E70148FEF709BB0000D4
:10430000CC020020FEE700000FB4054B10B503A956
:10431000044A029800F0FEF810BC5DF814FB00009F
:10432000194F00085C0000200FB4084B10B504A919
:1043300002AA039800F0EEF8044602A9002000F05B
:104340006CFC204610BC5DF814FB00001B4C000800
:104350000907090E002804DB00F1E02080F80014B2
:10436000704700F00F0000F1E02080F8141D704746
:1043700002E008C8121F08C1002AFAD1704770472E
:10438000002001E001C1121F002AFBD1704700008C
:104390002DE9FF5F82B00021DDE90430020DDDF878
:1043A00040B0034318D044F61050A2F2FF3242430B
:1043B0001514119801281FD0A5EB0B00401C5FEAD3
:1043C000000A4FF000064E4FDFF83891B0465046D5
:1043D00015D5CAF1000413E0119801244AA301285D
:1043E00001D16FEA0B010298119AC0E90031C0E9CE
:1043F000024206B0BDE8F09FCBF10000DFE70446C3
:104400000021404A491842EB0450CDE9001012E067
:10441000E00707D032463B4640464946FBF73DFFA2
:104420008046894632463B4610461946FBF735FF23
:1044300006460F466410002CEAD1DDE90401DDE9EF
:104440000023BAF1000F06DAFBF727FF42464B467E
:10445000FBF723FF05E0FBF792FF42464B46FBF7D5
:104460008EFF04460E460022284BFCF75BF903D86A
:104470004FF0FF30014607E00022254B2046314631
:10448000FCF791F8FCF736F9102409E0002C0ADB60
:104490000A220023FBF7BEFE039B30321A55641E2E
:1044A00050EA0102F2D1641C039AC4F111031444CE
:1044B000119A012A03D0012208430DD10AE00843D2
:1044C00004D000204FF0110B119072E7A3EB0B0505
:1044D0006D1E0DE05B4504DD4FF0000205F10105A6
:1044E00004E003DA4FF00002A5F10105002AECD048
:1044F00002981199C0E90231C0E9004579E700004E
:10450000000014400000F03F300000000000F043C5
:104510000000E03F2DE9FF4F95B09A4688460646D9
:104520000025EEE1252877D100242746F94A01210C
:10453000039400E0044316F8013F203B01FA03F026
:104540001042F7D130782A2811D06FF02F0330783D
:10455000A0F13002092A16D8039A44F0020402EBB3
:10456000820203EB42021044761C0390EFE758F8F6
:10457000042B0392002A03DA504244F400540390BF
:1045800044F00204761C30782E2816D116F8010F5C
:1045900044F004042A280DD06FF02F023078A0F1E7
:1045A0003003092B09D807EB870302EB4303C71835
:1045B000761CF3E758F8047B761C30786C280FD013
:1045C00006DC4C2817D068280DD06A2814D104E0E6
:1045D000742810D07A280FD10DE044F400140AE0BA
:1045E00044F4801401E044F440147278824202D111
:1045F00004F58014761C761C307866280BD013DC0A
:10460000582877D009DC002875D04528F6D04628F0
:10461000F4D047281AD193E118E0632835D06428F4
:1046200079D0652812D18BE1702873D008DC672817
:10463000F1D069286FD06E280DD06F2806D1ACE07C
:1046400073282CD0752874D0782853D052461799E7
:1046500090476D1C54E1C4F30250022809D003288E
:104660000DD0D8F8001004280DD00D6008F1040812
:1046700046E1D8F80010EA17C1E90052F6E7D8F889
:1046800000100D80F2E70D70F0E718F8041B8DF8AC
:10469000001000208DF80100EB46012003E058F8DF
:1046A00004BB4FF0FF3061074FF0000102D40DE072
:1046B00009F101018946B9420FDA8145F8DB1BF89F
:1046C00009100029F4D108E009F10101894681426D
:1046D000FADB1BF809100029F6D103985346A0EB2A
:1046E000090721463846179A00F080FA284400EB63
:1046F000090507E044E008E10DE01BF8010B524614
:1047000017999047B9F10109F7D253462146384627
:10471000179AF2E039E00A21C4F302524FF0000B7D
:104720000091022A06D058F8040BC117032A09D0B9
:104730000AE023E008F1070020F00702F2E8020196
:10474000904605E000B2C117042A01D140B2C1175A
:10475000002906DA0A460021404261EB02012D22BF
:1047600002E0220504D52B228DF80420012203E06B
:10477000E20701D02022F7E7914657E00A2100E046
:1047800010214FF0000B00910BE010214FF0000BB7
:1047900044F004040827009103E008204FF0000BC8
:1047A0000090C4F30252022A05D058F8040B0021ED
:1047B000032A08D008E008F1070020F00702F2E819
:1047C0000201904603E080B2042A00D1C0B24FF04B
:1047D000000922072AD53278702A07D0DDF800C0F8
:1047E0008CF0100C5CEA0B0C05D00EE040228DF82A
:1047F0000420012208E050EA010306D030238DF89E
:1048000004308DF8052002229146009B83F00803B6
:1048100053EA0B030AD150EA010201D1620705D520
:1048200030228DF804204FF001097F1E3278582A7B
:1048300004D039A20C920CAA02920BE03BA2F9E739
:104840005B46009AFBF7E6FC0C9B9B5C029A521EAF
:104850000292137050EA0102F2D1029804A9081AD8
:1048600000F1200B600702D524F4803400E001271A
:104870005F4502DDA7EB0B0000E0002000EB0B0121
:10488000009003984944401A0390E00306D453462D
:104890002146179A039800F0A9F90544002706E07D
:1048A00001A85246C05D179990476D1C7F1C4F456B
:1048B000F6DBE0030CD553462146179A039800F027
:1048C00095F9054404E030205246179990476D1C35
:1048D0000099481E00900029F5DC08E00298029932
:1048E00052460078491C0291179990476D1CBBF104
:1048F0000001ABF1010BF1DC5BE100F065F905446F
:10490000761C307800287FF40DAE19B02846BDE83B
:10491000F08F00000928010030313233343536374A
:1049200038396162636465660000000030313233FB
:10493000343536373839414243444546000000009B
:10494000600700D4062708F1070020F00700F0E810
:104950000223804603F0004C5FEA0C0001D097A0D0
:1049600009E0200501D596A005E0E00701D095A05B
:1049700001E0AFF24C001390307823F0004365283B
:104980000CD006DC452809D046281DD047287FD109
:104990003BE0662818D067287AD136E00021112F35
:1049A00001DB112000E0781CCDE9000104A90CA86E
:1049B000FFF7EEFCDDE90D010C9A4FF0000B07F15B
:1049C0000109109200914EE04FF000400097CDE9B0
:1049D000011004A90CA8FFF7DBFCDDE90D020C9B1C
:1049E0000F994FF0000B91461093009211B9791C6A
:1049F00000EB0109B7EB090003D4C0F1FF3B07F15D
:104A00000109A9EB0700019042E0012F00DA01271C
:104A10000021112F01DD112000E03846CDE9000111
:104A200004A90CA8FFF7B4FCDDE90D010C9A009174
:104A30004FF0000BB946109221070FD4009A4A4557
:104A400003DA914601E0A9F10109B9F1010F05DD91
:104A5000109AA9F10101515C3029F4D0B84202DA70
:104A600010F1040F03DA0121CDE9011010E0002854
:104A700003DC8344A9EB000102E0411C494500DD51
:104A80008946A0EB0B00401C01904FF000400290C3
:104A9000200705D40198484502DB4FF0FF30019014
:104AA00000208DF84B0002980DF14B07B0F1004F3C
:104AB00025D002200C902B200D90029800280CDAB3
:104AC000404202902D200D9007E00A210298FBF74A
:104AD000D8FC3031029007F8011D0C99481E0C904B
:104AE0000029F2DC02980028EFD1791E0D98087099
:104AF000307800F0200040F0450007F8020D11A8C2
:104B0000C01BC01D02901398007800B1012000EB7B
:104B10000901019801EBE071029801440398401AE1
:104B2000401E0390E00306D453462146179A03988B
:104B300000F05CF805441398007818B152461799B4
:104B400090476D1CE00323D553462146179A0398DE
:104B500000F04CF805441BE0BBF1000F07DB0098A8
:104B6000584504DD1098179910F80B0001E01799CB
:104B700030205246904701980BF1010B401E05F181
:104B80000105019004D12E205246179990476D1CC3
:104B9000B9F10001A9F10109DEDC05E017F8010B0C
:104BA0005246179990476D1C0299481E02900029A1
:104BB000F4DC53462146179A03989EE62D00000028
:104BC0002B000000200000002DE9F04104460025E4
:104BD0001E461746880404D405E039462020B04715
:104BE0006D1C641EF9D52846BDE8F0812DE9F04121
:104BF000044600251E469046C80301D5302700E034
:104C00002027880404D505E041463846B0476D1C8E
:104C1000641EF9D52846BDE8F0810A68531C0B6074
:104C20001070704770B5044681898068FCF712FCEB
:104C3000617911B12288521C2280E27800258242DB
:104C400006D02279521CD2B22271032A01D3E0701D
:104C50002571012051B101290ED0022911D12188DD
:104C60000F291DD9A078012815D017E0E178002977
:104C700007D12580A07003E0E07818B125800220DC
:104C8000607170BD20883228FBD9A07900F050F9FE
:104C90002580A57070BDA07900F0C4FB657170BD62
:104CA000E1780029FBD1A178491CA1702580E7E7B4
:104CB00070B52DED028B56A11820FEF735F95A4C30
:104CC0005A4DA0789FED5A8AA0B194ED0B0A10EED0
:104CD000100AA8425BDDC0EE080A10EE900AFBF74E
:104CE000BDFB41EC100B53A153EC102B5748FFF7C1
:104CF0001BFB5EE094ED090A10EE100AA8420EDDDF
:104D0000C0EE080A10EE900AFBF7A8FB41EC100B6E
:104D10004FA153EC102B4D48FFF706FB11E0B5EE09
:104D2000C00AF1EE10FA04D24FA14848FFF7FCFA8E
:104D300007E0BDEEC00A52A1444810EE102AFFF76A
:104D4000F3FA42496020FEF7EFF894ED0A0A10EEFC
:104D5000100AA8420BDDC0EE080A10EE900AFBF71D
:104D60007DFB41EC100B4BA153EC102B36E0B5EE64
:104D7000C00AF1EE10FA04D24CA13448FFF7D4FA7D
:104D80003DE0BDEEC00A4FA110EE102A34E0B5EEB2
:104D9000C00AF1EE10FA04D233A12C48FFF7C4FA8E
:104DA00007E0BDEEC00A4CA1284810EE102AFFF71C
:104DB000BBFA26496020FEF7B7F894ED0C0A10EE16
:104DC000100AA8420EDDC0EE080A10EE900AFBF7AA
:104DD00045FB41EC100B45A153EC102B1B48FFF792
:104DE000A3FA0CE0B5EEC00AF1EE10FAC4D3BDEEA2
:104DF000C00A44A110EE102A1448FFF795FABDEC42
:104E0000028B7820BDE870401049FEF78DB8000095
:104E100020202020202020204441544120202020F8
:104E200020202020000000000800002000007A441C
:104E300000007A442020202020413D252E32666D3E
:104E4000532020202020202020000000C00000202F
:104E50002020202020413D252E32664B487A2020FC
:104E600020202020202000002020202020413D4E16
:104E7000554C4C2020202020202020200000000025
:104E80002020202020413D2564487A202020202019
:104E9000202020002020202020423D252E32664B5D
:104EA000487A2020202020202020000020202020C0
:104EB00020423D4E554C4C202020202020202020F8
:104EC000000000002020202020423D2564487A2058
:104ED00020202020202020002020202020413D25AF
:104EE0006475532020202020202020002020202016
:104EF00020423D252E32666D532020202020202088
:104F0000200000002020202020423D2564755320F1
:104F1000202020202020200013B50A2301226946EA
:104F20000248FDF713FF00981CBD0000CC020020D2
:104F300040B1012808D0022808D0032808D105A0D4
:104F4000FFF7E2B906A0FBE708A0F9E70AA0F7E738
:104F5000704700004234B3A4B0B42E2E2E0D0A00C8
:104F60004231B3A4B0B42E2E2E0D0A004232B3A4A7
:104F7000B0B42E2E2E0D0A004233B3A4B0B42E2EA0
:104F80002E0D0A00BB4E37683468FCF77BFAFEF73B
:104F900091FCFEF793F9FEF7C9FAFEF771F9FEF7F7
:104FA00031F9FEF75BFAFEF7F3F9B3A0FFF7ACF9BE
:104FB00000F09EFA1E22B449B448FDF70EFCB44836
:104FC0000068016821F004010160DFF8BC92B1497A
:104FD00009F120090125C9F80810A9F80C5089F831
:104FE00003504FF0000889F806800222C9F8181013
:104FF000A9F81C2089F8135089F81650C9F8281010
:105000000421A9F82C10484689F8235089F8262055
:105010004FF090418163858780F83350032189F8F0
:105020003610FDF7C3FF0020FDF718FF0020FEF744
:1050300017F84FF6FF70FEF727F800219648FDF7A6
:1050400017FA04219448FDF713FA00219348FDF75D
:105050000FFA04219148FDF70BFADFF844A209F199
:10506000580B316807F10A0081420CD300F040FA76
:105070005FF0000709EB0710FFF7D4FD7F1CFFB2BC
:10508000042FF7D33768316804F164008142E8D314
:105090009AED060ADAED030A5446B8EEC01AB8EEE5
:1050A000C00A70EE810ACAED090A9AED051A31EEBE
:1050B000000A8AED0A0A9FED7B1AC1EE201ACAED9A
:1050C0000B1AC1EE001ACAED0C1A9AF8040010B1BE
:1050D00001280DD017E094ED071AB8EEC11AF4EECE
:1050E000C10AF1EE10FA0EDDE06B401CE0632571A1
:1050F00094ED071AB8EEC11AF4EEC10AF1EE10FAF7
:1051000001D284F8048094ED071A2078F8EEC11AD1
:10511000F4EEE10AF1EE10FA02DD20F0020001E007
:1051200040F002002070607910B101280BD013E02C
:10513000F8EEC11AB4EEE10AF1EE10FA0CDD206CC3
:10514000401C20646571F8EEC11AB4EEE10AF1EE7C
:1051500010FA01D284F80580B8EEC11A2078B4EEB6
:10516000C10AF1EE10FA02DD20F0040001E040F087
:1051700004002070A0795A460BEB8001C1ED000AB3
:105180004149F03101EB8003401CC0B283ED000ABD
:10519000A0711E2802D184F80680E571F0EE602A25
:1051A000B0EE402AF0EE401A5FF0000002EB800300
:1051B00093ED001AB4EEE21AF1EE10FA01D2F0EE1D
:1051C000412AB4EEE01AF1EE10FA01DDF0EE410AE8
:1051D00001EB800393ED000AB4EEC20AF1EE10FA7F
:1051E00001D2B0EE402AB4EEE10AF1EE10FA01DD90
:1051F000F0EE401A401CC0B21E28D7D3E079012837
:1052000019D194ED080A70EEE20AB8EEC01AF4EE75
:10521000C10AF1EE10FA02DD606B401C606371EEB2
:10522000C20AB8EEC00AF4EEC00AF1EE10FA02DDCE
:10523000A06B401CA063606B032800D2A06B207899
:105240002070607820B1012808D002280FD10CE02E
:10525000FFF72EFD207820F0010004E000F024F894
:10526000207840F00100207001E000F06FF8346811
:10527000F7E6000054000020B4AEBFDAB2E2CAD4B0
:105280002E2E2E0D0A00000060000020CC0200200F
:105290006003002000040048340200208002002047
:1052A000080000200024744910B511A11820FDF752
:1052B0003BFE154C15A11A48226AFFF735F818492C
:1052C0006020FDF731FE17A11548E269FFF72CF8C1
:1052D00013497820FDF728FE17A11148A269FFF7AE
:1052E00023F8BDE810400E499020FDF71DBE0000D8
:1052F000202020202020202050415241202020200A
:105300002020202000000000080000202020202075
:105310002050443D2564487A202020202020000091
:10532000C0000020202020202050483D2564487ADD
:105330002020202020200000202020202050583D28
:105340002564487A202020202020000010B515A1D7
:105350001820FDF7E9FD194C19A11F48626BFEF7F3
:10536000E3FF1D496020FDF7DFFD1CA11A48A26B79
:10537000FEF7DAFF18497820FDF7D6FD1DA1164883
:10538000E26BFEF7D1FF14499020FDF7CDFD1FA180
:105390001148226CFEF7C8FFBDE810400E49A82056
:1053A000FDF7C2BD2020202020202020524543446C
:1053B00020202020202020200000000008000020C5
:1053C00020202020204E44413D2564202020202004
:1053D0002020202000000000C000002020202020ED
:1053E000204E44423D2564202020202020202020E3
:1053F0000000000020202020204E48413D25642050
:10540000202020202020202000000000202020201C
:10541000204E48423D2564202020202020202020AE
:105420000000000070B5304C4FF47A7204F118039C
:10543000E17868CB78B1012827D0002502283ED03A
:10544000032807D10020FDF709FD6078022848D025
:10545000401C607070BD21B1012905D0022906D021
:1054600007E06436266204E06435E56101E06433F8
:10547000A361964200DD226242F21070854200DD97
:10548000E0619342E6DDA26170BD21B1012905D042
:10549000022906D007E0643E266204E0643DE5612F
:1054A00001E0643BA361642E01DA6420206295422E
:1054B00000DAE2610D488342E6DAA06170BD6078EF
:1054C00030B10128FAD1022909D0491CE17070BD20
:1054D000A07808B1A57070BD0120A07070BDE57006
:1054E00070BD657070BD00000800002018FCFFFF53
:1054F0000B4810B50168C9B201600168094A127809
:1055000041EA02210160084C012204212046FBF7F8
:10551000A6FF20460022BDE810400421FBF79FBFF4
:105520001408004808000020000C0048000000009B
:10553000000000000000000000000000000000006B
:10554000000000000000000000000000000000005B
:1055500000000000000000000000000000008001CA
:105560008001800180018001800180018001800133
:105570008001800180018001000000008001800125
:10558000000000000000000000000000000000001B
:10559000CC00CC00CC00CC00CC00CC000000000043
:1055A00000000000000000000000000000000000FB
:1055B00000000000000000000000000000000000EB
:1055C0000000000000000000600C600C600C300661
:1055D0003006FE1FFE1F300638071803FE1FFE1F91
:1055E000180318038C018C018C010000000080005E
:1055F000E003F80F9C0E8C1C8C188C009800F801AE
:10560000E007800E801C8C188C189C18B80CF00FCA
:10561000E0038000800000000000000000000000A7
:1056200000000E181B0C110C1106110611031103BA
:105630009B018E01C038C06C6044604430443044EB
:105640001844186C0C380000000000000000E00155
:10565000F0033807180618063003F001F000F800D0
:105660009C310E33061E061C061C063FFC73F021FF
:10567000000000000000000000000000000000002A
:105680000C000C000C000C000C000C0000000000D2
:10569000000000000000000000000000000000000A
:1056A00000000000000000000000000000000002F8
:1056B00000038001C000C0006000600030003000C6
:1056C00030003000300030003000300060006000FA
:1056D000C000C000800100030002000000002000A4
:1056E0006000C00080018001000300030006000686
:1056F0000006000600060006000600060003000380
:1057000080018001C0006000200000000000000057
:105710000000000000000000C000C000D806F8072C
:10572000E001300338070000000000000000000026
:105730000000000000000000000000000000000069
:105740000000000000000000800180018001800155
:105750008001FC3FFC3F80018001800180018001CD
:105760000000000000000000000000000000000039
:105770000000000000000000000000000000000029
:105780000000000000000000000000000000800198
:105790008001000100018000000000000000000006
:1057A00000000000000000000000000000000000F9
:1057B00000000000E007E00700000000000000001B
:1057C00000000000000000000000000000000000D9
:1057D00000000000000000000000000000000000C9
:1057E0000000000000000000000000000000C000F9
:1057F000C000000000000000000000000000000CDD
:10580000000C0006000600060003000300038003EE
:10581000800180018001C000C000C0006000600005
:105820000000000000000000000000000000E00395
:10583000F007380E180C0C180C180C180C180C1853
:105840000C180C180C180C18180C380EF007E00384
:105850000000000000000000000000000000000147
:105860008001C001F0019801880180018001800160
:105870008001800180018001800180018001800120
:105880000000000000000000000000000000E00335
:10589000F80F180C0C180C1800180018000C000653
:1058A00000038001C000600030001800FC1FFC1FD6
:1058B0000000000000000000000000000000E00107
:1058C000F807180E0C0C0C0C000C0006C003C007E7
:1058D000000C001800180C180C18180CF807E0033E
:1058E0000000000000000000000000000000000CAC
:1058F000000E000F000F800DC00C600C600C300C0F
:10590000180C0C0CFC3FFC3F000C000C000C000CB5
:105910000000000000000000000000000000F80F80
:10592000F80F180018000C00EC03FC071C0E001CFC
:105930000018001800180C181C0C180EF807E003CB
:105940000000000000000000000000000000C00790
:10595000F00F381C181818000C00CC03EC0F3C0E8C
:105960001C1C0C180C180C18181C380EF007E0033F
:105970000000000000000000000000000000FC1F0C
:10598000FC1F000C00060006000380038001C0011C
:10599000C000E000600060007000300030003000A7
:1059A0000000000000000000000000000000E00314
:1059B000F007380E180C180C180C3806F007F00712
:1059C000180C0C180C180C180C18380CF80FE003F5
:1059D0000000000000000000000000000000E003E4
:1059E000F007380E1C0C0C180C180C181C1C381E58
:1059F000F81BE0190018000C000C1C0EF807F00151
:105A00000000000000000000000000000000000096
:105A10000000000000000000800180010000000084
:105A20000000000000000000000000008001800174
:105A30000000000000000000000000000000000066
:105A40000000000000000000800180010000000054
:105A50000000000000000000000000008001800144
:105A600000010001800000000000000000000000B4
:105A70000000000000000000000000000010001CFA
:105A8000800FE003F8001800F800E003800F001C0E
:105A900000100000000000000000000000000000F6
:105AA000000000000000000000000000F81F0000DF
:105AB00000000000F81F00000000000000000000CF
:105AC00000000000000000000000000000000000D6
:105AD0000000000000000000000000000800380086
