:020000040800F2
:10000000C0060020F1010008DF320008F32A0008D2
:10001000DD320008290300082D430008000000001D
:10002000000000000000000000000000F73500089C
:10003000DB03000800000000E1320008F935000889
:100040000B0200080B0200080B0200080B0200085C
:100050000B0200080B0200080B0200080B0200084C
:100060000B0200080B0200080B0200082D03000819
:100070000B0200080B0200080B0200080B0200082C
:100080000B020008000000000B0200080B02000831
:100090000B0200080B0200080B0200080B0200080C
:1000A0000B0200080B0200080B0200080B020008FC
:1000B00075360008813600080B0200080B020008A4
:1000C0000B0200080B0200080B0200080B020008DC
:1000D0000B020008214300080B0200080B02000875
:1000E0000B0200080B0200080B0200080B020008BC
:1000F0000B0200080B0200080B02000800000000C1
:10010000000000000B020008000000000B020008C5
:100110000B020008000000000B0200080B020008A0
:100120000B0200080B0200080B0200080B0200087B
:100130000B02000800000000000000000B02000895
:100140000B0200080B020008000000000000000085
:10015000000000000000000000000000000000009F
:100160000000000000000000000000000B0200087A
:100170000B0200080000000000000000000000006A
:10018000000000000B02000800000000000000005A
:10019000000000000000000000000000000000005F
:1001A00000000000000000000B0200080B02000825
:1001B0000B0200080B0200080B0200080000000000
:1001C000000000000B02000800000000000000001A
:1001D0000B0200080B020008DFF810D000F092F8C4
:1001E00000480047A9460008AFF30080C006002081
:1001F0000648804706480047FEE7FEE7FEE7FEE7C1
:10020000FEE7FEE7FEE7FEE7FEE7FEE765360008ED
:10021000D90100082DE9F05F0546002092469B4673
:1002200088460646814640241BE02846414647460C
:10023000224600F057F853465A46C01A914110D34F
:1002400011461846224600F03EF82D1A67EB0108C9
:100250004F4622460120002100F035F817EB000937
:100260004E41201EA4F10104DFDC484631462A46F7
:100270004346BDE8F09FD2B201E000F8012B491ED1
:10028000FBD270470022F6E710B513460A46044633
:100290001946FFF7F0FF204610BD30B50B4601466A
:1002A00000202022012409E021FA02F59D4205D315
:1002B00003FA02F5491B04FA02F52844151EA2F1BF
:1002C0000102F1DC30BD202A04DB203A00FA02F101
:1002D000002070479140C2F1200320FA03F3194334
:1002E00090407047202A04DB203A21FA02F00021D6
:1002F000704721FA02F3D040C2F120029140084336
:1003000019467047064C074D06E0E06840F00103CF
:1003100094E8070098471034AC42F6D3FFF760FF2B
:100320009C5B0008BC5B0008FEE70000014800F091
:100330001CBC00005C0200200D4902688A4201D208
:100340000C4901E00B492031D2B21423083AB2FB28
:10035000F3F2436C02F01F0223F00303194481649B
:1003600004498031C164012191400165704700005A
:1003700008040240000802400179074A02EB8102AA
:100380004265054A4432491E826501F01F0201217F
:100390009140C16570470000FC08024030B5D0E9CB
:1003A00013456560446D14B1D0E91645656090F859
:1003B000444004F01F050124AC40056C6C600468E7
:1003C00063608368102B036803D099600068C26083
:1003D00030BD9A600068C16030BD7047002240F6B1
:1003E000B83306E00021491C89B29942FBD3521C64
:1003F00092B28242F6D3704772B6FEE72DE9F84F0B
:1004000000270446009790F85800DFF8D8930D466F
:10041000B846012811D0012684F85860206802F0FF
:100420004FFD60B1E06D40F02000E0655FF0010736
:1004300084F858803846BDE8F88F0220FBE7D5E9FC
:1004400000210C23206803EA91131844036B01F088
:100450001F014FF01F0C0CFA01FCC2F3846223EA67
:100460000C038A4013430363206802F029FD82468F
:10047000206802F021FD5AEA00003CD1AA682968F0
:100480002068B2F1004F37D002F01EFD20684169AC
:1004900021F00041416120686969C268C2F3C1026C
:1004A000520091402A69042A31D000EB82002B6867
:1004B000026EDFF834C303F0F84302EA0C020B4388
:1004C0001A4342F00041016620682A69A96900EBDD
:1004D0008200026E22F080720A430266297F22683F
:1004E0002869012910D0002102EB8000026E22F061
:1004F00000720A4302667DE0002202F0E5FC2068FB
:10050000416941F00041C5E74FF00071ECE700217F
:1005100002F0CCFC400320684FF0000172D002F0E2
:10052000C5FC90FAA0F0B0FA80F1286842036ED0C2
:1005300090FAA0F0B0FA80F0814204D10022114676
:10054000206802F0D0FC0121206802F0AFFC4003DB
:1005500020684FF001015DD002F0A8FC90FAA0F0F5
:10056000B0FA80F12868420359D090FAA0F0B0FAAE
:1005700080F0814204D100220121206802F0B3FC06
:100580000221206802F092FC400320684FF0020133
:1005900048D002F08BFC90FAA0F0B0FA80F1286805
:1005A000420344D090FAA0F0B0FA80F0814204D126
:1005B00000220221206802F096FC0321206802F04C
:1005C00075FC400320684FF0030133D002F06EFC4D
:1005D00090FAA0F0B0FA80F1286842032FD090FA88
:1005E000A0F0B0FA80F0814204D1002203212068FB
:1005F00002F079FC2068816811F0010F22D0A8E098
:1006000000E004E002F052FCC0F384618DE7C0F327
:10061000846091E702F04AFCC0F38461A2E7C0F372
:100620008460A6E702F042FCC0F38461B7E7C0F340
:100630008460BBE702F03AFCC0F38461CCE7C0F30E
:100640008460D0E7EB6829684B4550F8B03FC1F3B0
:10065000120101D10B4300E08B430360E868484579
:1006600077D1286841031CD090FAA0F1B1FA81F14A
:10067000491C01F01F0109294FEA403132D80029F5
:1006800012D000BF90FAA0F1B1FA81F101F101019D
:1006900001F01F0106FA01F609D100BFC0F3846121
:1006A00009E0C0F38461E3E7C0F38461EEE790FA08
:1006B000A0F1B1FA81F101F1010101F01F0146EA57
:1006C000816102D1C0F3846003E090FAA0F0B0FA37
:1006D00080F000F1010000F01F0000EB400041EA53
:1006E000005132E000290ED090FAA0F1B1FA81F168
:1006F00001F1010101F01F0106FA01F606D100BF68
:10070000C0F3846106E0C0F38461F1E790FAA0F1E0
:10071000B1FA81F101F1010101F01F0146EA8161A5
:1007200002D1C0F3846003E090FAA0F0B0FA80F048
:1007300000F1010000F01F002C4A00EB400002EB2A
:10074000005041EA000141F00071AA68206802F0FF
:10075000BBFB27482A6802423FF46AAE25488168FD
:10076000254B01F0E0719A4202D0244B9A421CD1F1
:100770000B021AD42268B2F1A04F7FF459AE8268FE
:1007800041F4000122F0E0720A4382601C481D49D6
:100790000068B0FBF1F0401C00EB4000800000E07E
:1007A000401E00900028FBD142E6174D174BAA428D
:1007B00007D1CD0105D422689A42F5D041F080716D
:1007C00009E0134DAA42EFD14A02EDD422689A42C1
:1007D000EAD041F48001826822F0E0720A4382602C
:1007E00026E6000000007F4000F0FF03000020FE2E
:1007F0000000088000030050000021C31000C090DA
:1008000014000020400D0300000052C700010050FA
:10081000000084CBF8B54FF0000504002E4600958B
:1008200002D0E06D10B107E00120F8BD204600F0D5
:10083000EFF8266684F8586020688168C1F340713B
:1008400019B181686A4A1140816020688168C1F3EA
:10085000007189B98168674A114041F08051816017
:10086000654866490068B0FBF1F04000801C00E07C
:10087000401E00900028FBD120688168C1F3007100
:1008800041B9E16D41F01001E165216E41F00101D6
:100890002166012502F014FBE16DC90600D430B1D8
:1008A000E06D40F01000E06501252846F8BDE06DE0
:1008B00020F4807040F00200E0652068806810F04D
:1008C000010F11D14FF0A04080684D4900F00100A8
:1008D000896801F00101084306D14A4861688268CD
:1008E00022F47C120A438260E168E06B627F084375
:1008F000A16841EA4231084394F8241040EA0140DB
:10090000012904D1218D404A02EB41410843E16AAB
:1009100029B101F47871226B014342EA0100216898
:10092000CA683A4B1A400243CA6020680169626B88
:1009300021F0406111430161206802F0C1FA0646CE
:10094000206802F0B9FA30432ED1207F94F8381095
:10095000800340EA41022068C16844F202039943DF
:100960001143C16020690028206801690AD041F460
:1009700080310161206850F8C01F22696FF30D01BA
:10098000114307E021F480310161206850F8C01F55
:100990006FF30D01016094F8400001280CD020682D
:1009A000016921F001010161606901282068016B82
:1009B00021F00F0111D013E0D4E911010843D4E96B
:1009C00013121143084321680A6940F2FC739A43E9
:1009D000104340F001000861E6E7226A521E11430D
:1009E0000163E06D20F0020040F00100E0655CE78B
:1009F000C0FFFF5FC0FFFF7F14000020400D030019
:100A000000010050000300500000FEFF0740F0FF0F
:100A100010B598B00446142111A8FFF733FC442107
:100A20006846FFF72FFC15492068884223D1C4018E
:100A3000400500940F90684600F0D8FB08B1FFF71E
:100A4000DBFC0F48C16C41F40051C164C16C01F47E
:100A500000511691C16C41F00201C164C06C11A932
:100A600000F0020016900320CDE911400020139001
:100A7000044800F08FF918B010BD000000010050CC
:100A8000001002400004004810B590F82530002105
:100A90000122022B03D00421C163012122E003685B
:100AA0001C6824F00E041C60836C1C6824F48074A1
:100AB0001C6003681C6824F001041C6090F844303A
:100AC000046C03F01F0302FA03F36360D0E91334EC
:100AD0005C60436D33B11C6824F480741C60D0E901
:100AE00016345C6080F82520002280F82420084617
:100AF00010BD70B590F82520002401212346022A5C
:100B000007D00422C26380F8251080F82430012425
:100B100029E00268156825F00E0515600268156861
:100B200025F001051560826C156825F48075156047
:100B300090F84420056C02F01F0201FA02F26A608C
:100B4000D0E913255560426D32B1156825F48075E2
:100B50001560D0E91625556080F8251080F82430FE
:100B6000816B01B18847204670BDF0B4016C0C6800
:100B700001680D6890F8442002F01F06042202FA72
:100B800006F3234211D06B070FD50B689B0603D4E5
:100B90000B6823F004030B6090F8441001F01F0170
:100BA0008A40016C4A60016B1DE0022303FA06F7DC
:100BB00027424FF0000C4FF0010218D0AF0716D5B6
:100BC0000C68A40605D40C6824F00A040C6080F8B4
:100BD000252090F8441001F01F018B40016C4B6000
:100BE00080F824C0C16A00291AD0F0BC0847082345
:100BF000B340234214D02B0712D50B6823F00E0309
:100C00000B6090F84410036C01F01F0102FA01F12F
:100C10005960C26380F8252080F824C0416BE2E768
:100C2000F0BC704770B504000CD02B4A216814202A
:100C3000914209D2294A0A44B2FBF0F08000606474
:100C400027480AE0012070BD234A52420A44B2FB01
:100C5000F0F080006064204808382064022084F8A6
:100C600025000A6847F6F0708243D4E9020318436E
:100C7000D4E904352B431843A3691843E3691843A7
:100C8000236A1843104308602046FFF755FBA0680D
:100C90000025B0F5804F00D16560A16C2079086017
:100CA000D4E9130141606068401E032808D820463B
:100CB000FFF762FB606D0560D4E91601416002E058
:100CC0006565A565E565E563012084F8250084F880
:100CD0002450002070BD000008040240F8FFFDBF52
:100CE0000000024070B5044690F824000025012859
:100CF0000CD0012084F8240094F825600020012EF7
:100D000006D084F824000225284670BD022070BD5C
:100D1000022684F82560E0632068066826F0010654
:100D200006602046FFF73AFB206B00282068016828
:100D300002D041F00E0106E021F0040101602068BC
:100D4000016841F00A010160A06C0168C90303D584
:100D5000016841F480710160606D18B1016841F46F
:100D6000807101602068016841F001010160CBE7FA
:100D700070B5044600F03CF90546601C02D00448FA
:100D80004068044400F034F9401BA042FAD370BD1F
:100D9000080000202DE9F04FDFF820920023012603
:100DA0000324A9F1040B85B00F2709F1040AABF164
:100DB000040EFAE006FA03F52A407CD091F804C04C
:100DC0000CF0030CBCF1010F02D0BCF1020F26D1D4
:100DD000D0F808C0CDF800C04FEA430C04FA0CF874
:100DE000CDF810C0DDF800C02CEA080CCDF800C02A
:100DF000D1F80C80DDF810C008FA0CF8DDF800C05E
:100E000048EA0C08C0F80880D0F804C02CEA050CA9
:100E10000D79C5F300159D4045EA0C0545600D7937
:100E2000ED43AD070ED0C5684FEA430804FA08FC4D
:100E300025EA0C05D1F808C00CFA08FC4CEA050CB0
:100E4000C0F80CC00D7905F00305022D16D1DD08A0
:100E500000EB850CCDF808C0DCF820805D074FEA78
:100E6000D56C07FA0CF528EA05080D6905FA0CF5AA
:100E7000DDF808C045EA0805CCF8205005684FEABF
:100E8000430CCDF808C004FA0CFC25EA0C0591F8D7
:100E900004C00CF00308DDF808C008FA0CF848EAB2
:100EA0000508C0F800804D6815F4403F7CD0444DE3
:100EB000D5F860C000E077E04CF0010CC5F860C0E8
:100EC0002D6E23F0030C05F0010500953D4D6544A2
:100ED0000295AD684FEA837C4FEA1C7807FA08FC5C
:100EE00025EA0C05B0F1904F06D0DFF8DCC0604574
:100EF00005D14FF0010C20E04FF0000C1DE0DFF8B1
:100F0000CCC0604502D14FF0020C16E0DFF8C0C043
:100F1000604502D14FF0030C0FE0DFF8B8C0604528
:100F200002D14FF0040C08E0DFF8ACC0604502D1FC
:100F30004FF0050C01E04FF0060C0CFA08FC4CEAEF
:100F4000050C029DC5F808C0D9F80050CC46D1F870
:100F5000048095435FEAC82800D51543CCF80050BB
:100F6000DAF80050D446D1F8048095435FEA882827
:100F700000D51543CCF80050DBF80050DC46D1F822
:100F8000048095435FEA883800D51543CCF80050BB
:100F9000DEF80050F446D1F8048095435FEAC83883
:100FA00000D51543CCF800505B1C0A6832FA03F5F3
:100FB0007FF400AF05B0BDE8F08F000008040140E9
:100FC00000100240000001400004004800080048F2
:100FD000000C004800100048001400480069084058
:100FE00000D0012070470AB181617047816270476B
:100FF00001488068704700000800002002488168AE
:1010000042681144816070470800002010B5002438
:10101000032000F073F80F2000F008F808B1012455
:1010200001E000F025F8204610BD000070B50E4E1E
:1010300005460024706898B14FF47A71B1FBF0F066
:101040000A490968B1FBF0F000F064FD40B9102DC9
:1010500006D200222946501E00F030F8356000E02C
:101060000124204670BD000008000020140000206C
:101070000A4882B0016E41F001010166016E01F083
:1010800001010091816D41F080518165806D00F01A
:101090008050009002B000F0A1B8000000100240A3
:1010A000002809DB00F01F02012191404009800067
:1010B00000F1E020C0F8001170470000F0B40E4BC2
:1010C0001B680C46C3F30223C3F10705042D00D9A6
:1010D0000425191D072901D2002300E0DB1E01268B
:1010E00006FA05F1491E214099409E40761E1640A1
:1010F0003143F0BC03F02CB90CED00E0064900F0E0
:10110000070208684FF6FF03184040EA0220034A2E
:1011100010430860704700000CED00E00000FA0585
:101120002B492C4B0A6832214A432B4940B1B0F578
:10113000007F086829D020F4C06040F480602CE073
:101140000868C0F34120022804D051F8800F20F431
:10115000807022E0D1F8800020F48070C1F8800017
:10116000086820F4C06040F400700860B2FBF3F03F
:10117000401C00E0401E4A69520501D50028F9D103
:10118000486940050AD503207047C0F34120022872
:1011900006D051F8800F40F480700860002070473E
:1011A000D1F8800040F48070C1F88000086820F415
:1011B000C06040F400700860B2FBF3F0401C00E037
:1011C000401E4A695205DBD50028F9D1D8E7000056
:1011D0001400002040420F00007000400248816867
:1011E00041F4804181607047007000402DE9F84370
:1011F0000446006800269D4D00035ED5A86D0027BB
:10120000C00008D4A86D40F08050A865A86D0127E3
:1012100000F080500090DFF85892D9F8001041F4A7
:101220008071C9F80010FFF7E3FE804606E000BFBA
:10123000FFF7DEFEA0EB080002282BD8D9F800004B
:10124000C005F5D5D5F8900010F4407014D0216C8D
:10125000814211D0D5F89000D5F8901020F440705C
:1012600041F48031C5F89010D5F8901021F4803108
:10127000C5F89010C5F89000C00711D0FFF7B8FE70
:10128000804641F2883907E0FFF7B2FEA0EB080183
:10129000494501D903260BE0D5F890008007F3D526
:1012A000D5F89000216C20F440700843C5F89000F8
:1012B0001FB1A86D20F08050A8652078C00707D026
:1012C000D5F88800616820F003000843C5F888005D
:1012D0002078800707D5D5F88800A16820F00C0099
:1012E0000843C5F888002078400707D5D5F888005E
:1012F000E16820F030000843C5F888002078000736
:1013000007D5D5F88800216920F0C0000843C5F84A
:1013100088002078800607D5D5F88800616920F418
:1013200040600843C5F888002078400607D5D5F806
:101330008800A16920F440500843C5F8880020784F
:10134000000607D5D5F88800E16920F4404008433D
:10135000C5F888002088C00507D5D5F88800216A1F
:1013600020F440300843C5F888002088800507D560
:10137000D5F88800616A20F440200843C5F8880049
:10138000208840050FD5D5F88800A16A20F44010C8
:101390000843C5F88800A06AB0F5801F03D1E8684B
:1013A00040F48010E860208800050FD5D5F888004B
:1013B000E16A20F440000843C5F88800E06AB0F50F
:1013C000800F03D1E86840F48010E8602088C004F2
:1013D0000FD5D5F88800216B20F040700843C5F880
:1013E0008800206BB0F1807F03D1E86840F4801062
:1013F000E86020884FF0006180040ED5D5F88800A1
:10140000626B20F040601043C5F88800606B884232
:1014100003D1E86840F48010E860208840040ED5CD
:10142000D5F88800A26B20F040601043C5F8880012
:10143000A06B884203D1E86840F48010E8602088FF
:1014400000040FD5D5F88800E16B20F04050084328
:10145000C5F88800E06BB0F1805F03D1E86840F424
:101460008030E8603046BDE8F8830000001002409C
:10147000007000402DE9F0470E4605004FF00007D0
:1014800025D0DFF8AC81D8F8000000F00F00B042A2
:101490000CD2D8F8001021F00F013143C8F8001029
:1014A000D8F8000000F00F00B04210D12968614C5C
:1014B000C80741F2883A5AD06868DFF87C9103285F
:1014C00008D0022820682DD0400500282CDB012000
:1014D000BDE8F08720688001F9D5E06800F00302DC
:1014E000E068C0F30310401C032A19D0534A00BF20
:1014F000B2FBF0F0E268C2F306225043E268C2F3A6
:101500004162521C5200B0FBF2F0484517D9A06866
:1015100010F0F00F0CD0880711D5A86840B10EE08C
:10152000474AE5E78003D0E700F0B6F8484506D91A
:10153000A06820F0F00040F08000A0608027A06844
:10154000696820F003000843A060FFF751FD814661
:1015500006E000BFFFF74CFDA0EB090151453AD86A
:10156000A068696800F00C00B0EB810FF2D1286828
:10157000810714D5400703D5A06840F4E060A0605F
:101580002878000705D5A06820F4605040F4E0609A
:10159000A060A068A96820F0F000084304E0802F54
:1015A00003D1A06820F0F000A060D8F800104046F9
:1015B00001F00F01B14216D9016821F00F0131434A
:1015C0000160FFF715FD074607E000BFFFF710FDBC
:1015D000C11B514501D903207AE7D8F8000000F07B
:1015E0000F00B042F2D12878400705D5A068E9681D
:1015F00020F4E0600843A0602878000706D5A068C2
:10160000296920F4605040EAC100A06000F044F86D
:10161000A1680C4AC1F30311515C01F01F01C840DD
:101620000949086009480068BDE8F047FFF7FEBCBB
:10163000002002400010024000B4C4040024F40062
:1016400000366E01845B00081400002008000020B2
:101650000548064900688968054AC1F30221515CC2
:1016600001F01F01C8407047140000200010024024
:10167000945B00080548064900688968054AC1F37B
:10168000C221515C01F01F01C840704714000020C6
:1016900000100240945B0008184910B58868C0F338
:1016A00081021748012A0BD08A68164BC2F38102C7
:1016B000022A06D08A68C2F38102032A03D00020DE
:1016C00010BD184610BDCA6802F00304CA68C2F310
:1016D0000312521C032C02D0B0FBF2F001E0B3FB6A
:1016E000F2F0CA68C968C2F306225043C1F34161EF
:1016F000491C4900B0FBF1F010BD00000010024091
:101700000024F40000366E012DE9F84304007AD07D
:101710002078FA4DC00747D0A868E96800F00C00AF
:1017200001F003010C2802D0082817D001E003299A
:1017300014D06068B0F5803F17D0B0F5A02F2868AE
:1017400017D020F480302860286820F4802028609A
:101750006068E0B1FFF74CFC064614E0286880039F
:1017600022D560680028D2D01EE0286840F480307E
:10177000EDE740F480202860F7E700BFFFF738FC72
:10178000801B642870D828688003F7D50CE0FFF729
:101790002FFC064605E000BFFFF72AFC801B6428EB
:1017A000F0D828688003F7D4207880074CD5A86843
:1017B000E96800F00C0001F003010C2802D00428B5
:1017C0000DD001E002290AD0E068002828682BD05B
:1017D00040F480702860FFF70BFC064619E028688B
:1017E000400502D5E068002891D06868217C20F08F
:1017F000FE4040EA01606860C1480068FFF716FCDF
:10180000002800D120E076E1FFF7F2FB801B0228E0
:10181000B8D828684005F7D56868217C20F0FE40DC
:1018200040EA016068600FE020F480702860FFF7F4
:10183000DFFB064605E000BFFFF7DAFB801B02284E
:10184000A0D828684005F7D42078000729D560691A
:101850000028D5F8940013D040F00100C5F894009A
:10186000FFF7C6FB064606E090E000BFFFF7C0FBAF
:10187000801B022886D8D5F894008007F6D510E0A2
:1018800020F00100C5F89400FFF7B2FB064604E023
:10189000FFF7AEFB801B022878D8D5F894008007AC
:1018A000F6D42078400761D5A86D0026C00008D482
:1018B000A86D40F08050A865A86D012600F080500A
:1018C000009090480168C90511D40168804641F430
:1018D00080710160FFF78CFB074604E0FFF788FB8F
:1018E000C01B022852D8D8F80000C005F6D5A06861
:1018F000012815D00528D5F8900016D020F0010059
:10190000C5F89000D5F8900020F00400C5F89000CC
:10191000A06841F28838B8B1FFF76AFB07460EE0CD
:10192000D5F8900040F00100F0E740F00400C5F861
:101930009000F5E7FFF75CFBC11B414526D8D5F8C1
:1019400090008007F6D50CE0FFF752FB074604E055
:10195000FFF74EFBC11B414518D8D5F89000800712
:10196000F6D41EB1A86D20F08050A86520788006BE
:1019700029D5A0690028D5F8980013D040F00100BF
:10198000C5F89800FFF734FB064606E077E000BF95
:10199000FFF72EFB801B022877D8D5F89800800728
:1019A000F6D510E020F00100C5F89800FFF720FB05
:1019B000064604E0FFF71CFB801B022865D8D5F81B
:1019C00098008007F6D4E069F0B3A968C1F38101FB
:1019D000032961D00228286820F0807028600BD08D
:1019E000E86820F00300E860E86847490840E860DC
:1019F000FFF7FEFA04464BE0FFF7FAFA064604E06A
:101A0000FFF7F6FA801B02283FD828688001F7D438
:101A1000F4E908016FF00F0202EB01110843218A7B
:101A20005204490802EB4151A26841EA02210843ED
:101A3000217D4FF07E42490802EB41610843217B42
:101A400040EAC160E96800E062E0304A11400843C2
:101A5000E860286840F080702860E86840F0807096
:101A6000E860FFF7C5FA044605E000BFFFF7C0FADB
:101A7000001B022809D828688001F7D548E004E057
:101A8000FFF7B6FA001B022802D90320BDE8F8834D
:101A900028688001F4D43BE00128F7D0E868226A86
:101AA00000F00301914226D1616A00F0F0020901C1
:101AB000103991421FD1A26A00F4FE41B1EB022F0E
:101AC00019D194F82C2000F07841B1EBC26F12D1FB
:101AD000218E00F4C00249084905A1F50011914288
:101AE00009D194F8341000F0C06049084906A1F10A
:101AF000007181420CD00120C8E7000000100240B4
:101B00000800002000700040FFFFEEFE0C809F01E7
:101B10000020BBE710B5401EB0F1807F01D301204B
:101B200010BD4FF0E02460610F21601702F010FC3F
:101B30000020A06107202061002010BD7047704781
:101B400070470000F0B590F83C20012A4AD00122ED
:101B500080F83C20CA688B6822F440721A434B68B4
:101B600022F480621A430B6822F400621A430B6964
:101B700022F480521A434B6922F400521A430B6B31
:101B800022F480421A430B8B22F4702242EA034271
:101B9000154C03680026154DA34201D0AB4203D17A
:101BA000CF6922F080523A43A34201D0AB4214D114
:101BB0000F8D22F4700242EA07520F6A22F08072FF
:101BC0003A434F6A22F000723A43A34201D0AB423B
:101BD00003D1C96A22F000520A435A6480F83C607B
:101BE0000020F0BD0220F0BD002C01400034014077
:101BF0007047704770470000F0B590F83C20012A0C
:101C00003AD0012580F83C50022280F83D2003683C
:101C10005A689C68194E1A4FB34201D0BB4204D196
:101C200022F4700C4A6842EA0C02DFF858C002EA5B
:101C30000C02D1F800C04CEA020CC3F804C00268E0
:101C4000B2420DD0B2F1804F0AD00F4B9A4207D06A
:101C50000E4B9A4204D0BA4202D00D4B9A4204D1A4
:101C6000896824F080031943916080F83D50002179
:101C700080F83C100846F0BD0220F0BD002C014069
:101C8000003401408FFFFFFD0004004000080040C9
:101C900000400140704710B5040003D094F83D00A7
:101CA00010B107E0012010BD002084F83C00204660
:101CB00000F022F8022084F83D00211D206801F088
:101CC000E5FC012084F8480084F83E0084F83F00D9
:101CD00084F8400084F8410084F8420084F843000E
:101CE00084F8440084F8450084F8460084F84700EE
:101CF00084F83D00002010BD30B587B004461421A3
:101D00006846FEF7BFFA236800242D4902224FF0EF
:101D10009040B3F1804F25D02A4DAB4243D18B6D1B
:101D200043F002038B658B6D03F002030593CB6CCC
:101D300043F00103CB64C96C01F0010105918021DE
:101D40008DE81600CDE903426946FFF723F800222B
:101D500011461D20FFF7B2F95FF01D00FFF7A0F953
:101D600007B030BD8B6D43F001038B658B6D03F0C5
:101D700001030593CB6C43F00103CB64C96C01F004
:101D8000010105914FF400418DE816000121CDE9D4
:101D900003416946FEF7FEFF002211461C20FFF7B3
:101DA0008DF91C20DAE708488342D9D1086E40F447
:101DB00000300866086E00F400300590D0E700009F
:101DC00000100240000400400044014070B5044689
:101DD00090F83C000025012814D0012684F83C60CE
:101DE000022084F83D0022689068364B184020F4A9
:101DF0007F409060086870282ED010DC10F00F0F24
:101E000003D021E04FF0020070BD4FEA2012072AF4
:101E10001AD2DFE802F0525252524A3840002A4B9E
:101E2000C21A984249D009DCB0F5805F0DD0B0F5F8
:101E3000005F1CD0B0F1101F06D13EE0102A3CD04C
:101E4000202A3AD0502A38D0012584F83D6000205D
:101E500084F83C00284670BDCB68D1E90121206898
:101E600001F06CFC2068816841F0770109E0CB68E3
:101E7000D1E90121206801F061FC2068816841F40A
:101E800080418160E1E7CA684968206801F068FE26
:101E90005021206806E0CA684968206801F0A8FE61
:101EA0006021206801F054FCCFE7CA6849682068C7
:101EB00001F056FE40212068F4E7226801461046F2
:101EC000F0E7000088FFCEFF2000100070472DE9EA
:101ED000F041054690F83C0000260C46012810D041
:101EE000012085F83C0072B1042A1CD0082A2CD0AD
:101EF0000C2A50D00126002085F83C003046BDE871
:101F0000F0810220FBE7D4E90012E368286801F0C1
:101F100039FE2868816921F00C0181612868816996
:101F2000A26811430FE0D4E90012E368286801F0C9
:101F300071FE2868816921F44061816128688169A6
:101F4000A26841EA02218161D5E72868D4E9002C22
:101F5000277B016A21F480710162C169036A21F063
:101F6000030141EA0C0121F0F00C39074FF420671E
:101F70004CEA116123F4206307EA02221A43C1618B
:101F800002622868C16921F00C01C1612868C16939
:101F9000A268114328E02868D4E90027E168036AB1
:101FA00023F480530362D0F81CC0036A2CF4407CF5
:101FB0004CEA07274FF6FF7C27F470470CEA013103
:101FC00039434FF4204723F4204307EA02321A43EF
:101FD000C16102622868C16921F44061C161286859
:101FE000C169A26841EA0221C16184E710B5040019
:101FF00003D094F83D0010B107E0012010BD00208F
:1020000084F83C00204600F022F8022084F83D00CD
:10201000211D206801F03AFB012084F8480084F873
:102020003E0084F83F0084F8400084F8410084F8C2
:10203000420084F8430084F8440084F8450084F8A2
:10204000460084F8470084F83D00002010BD70472A
:1020500070B50446006801694FF00005C94389075F
:1020600015D4C168C943890711D4E91E0161012053
:102070002077206880698007204602D0FFF726FF7E
:1020800004E000F01DF9204600F0DFF92577206814
:102090000169C943490717D4C168C943490713D423
:1020A0006FF004010161022020772068806910F43C
:1020B000407F204602D0FFF709FF04E000F000F95E
:1020C000204600F0C2F9257720680169C943090755
:1020D00016D4C168C943090712D46FF00801016121
:1020E000042020772068C0698007204602D0FFF7CF
:1020F000EDFE04E000F0E4F8204600F0A6F92577B4
:1021000020680169C943C90617D4C168C943C90613
:1021100013D46FF010010161082020772068C06996
:1021200010F4407F204602D0FFF7D0FE04E000F01C
:10213000C7F8204600F089F9257720680169C9436E
:10214000C90708D1C168C943C90704D1891E016103
:10215000204600F07BF920680169C943090609D4CB
:10216000C168C943090605D46FF0800101612046AA
:10217000FFF7E5FC20680169C943C90509D4C168B6
:10218000C943090605D46FF4807101612046FFF749
:10219000D5FC20680169C943490609D4C168C9430F
:1021A000490605D46FF040010161204600F07AF93C
:1021B00020680169C943890609D4C168C9438906F1
:1021C00005D46FF0200101612046FFF7B9FC2068BB
:1021D0000169C943C90209D4C168C943C90205D408
:1021E0006FF4801101612046FFF703FD206801694B
:1021F000C943890209D4C168C943890205D46FF46F
:10220000001101612046FFF7F3FC20680169C94312
:10221000490209D4C168C943490205D46FF4800159
:1022200001612046FFF7E6FC20680169C943090205
:102230000BD4C168C943090207D46FF400010161DE
:102240002046BDE87040FFF725BD70BD70B586B073
:10225000044614216846FEF715F825680023164940
:10226000022201244FF09040B5F1804F14D0134E5C
:10227000B5420FD1CD6C45F00105CD64C96C01F0BC
:102280000101059140218DE80E00CDE90334694636
:10229000FEF780FD06B070BDCD6C45F00105CD6444
:1022A000C96C0092CDE9012301F00101CDE904419F
:1022B00003936946ECE7000000100240004401402F
:1022C000704770B5044690F83C0000260D46012882
:1022D0000BD0012084F83C000C2A4AD007DC82B1E4
:1022E000042A20D0082A06D131E0022070BD102A2D
:1022F00053D0142A63D00126002084F83C003046D5
:1023000070BD206801F02EFA2068816941F0080153
:1023100081612068816921F00401816120688169FF
:102320002A69114311E0206801F06AFA2068816986
:1023300041F4006181612068816921F480618161DB
:10234000206881692A6941EA02218161D4E7206815
:1023500001F09EFA2068C16941F00801C16120685E
:10236000C16921F00401C1612068C1692A69114372
:1023700011E0206801F0D4FA2068C16941F40061DD
:10238000C1612068C16921F48061C1612068C169AF
:102390002A6941EA0221C161AEE7206801F008FB29
:1023A0002068016D41F0080101652068016D21F090
:1023B000040101652068016D2A69114311E020685C
:1023C00001F02EFB2068016D41F400610165206879
:1023D000016D21F4806101652068016D2A6941EA7F
:1023E0000221016588E710B5040003D094F83D0090
:1023F00010B107E0012010BD002084F83C00204609
:1024000000F022F8022084F83D00211D206801F030
:102410003DF9012084F8480084F83E0084F83F002C
:1024200084F8400084F8410084F8420084F84300B6
:1024300084F8440084F8450084F8460084F8470096
:1024400084F83D00002010BD70477047704770B59C
:10245000044690F83C00012812D0012584F83C5035
:10246000022084F83D00204601F012FB01004FF0ED
:10247000000007D084F83D5084F83C00012070BD76
:10248000022070BD2168CA6822F04002CA6021683B
:10249000CA6822F48042CA6084F83D5084F83C0047
:1024A000002070BD704790F88010012918D00121DC
:1024B00080F880102421C0F8841050F8641B0A684A
:1024C0000B6823F001030B6022F000510022026030
:1024D00050F8643C19602021016202771046704771
:1024E0000220704710B50446D0F88800202820D17B
:1024F00081B17AB194F8800001281AD0012084F8C3
:102500008000E066204601F055FE002803D1E16E10
:10251000012901D0012010BD22681021116222681A
:1025200052E8001F41F0100142E80013002BF6D1E1
:1025300010BD022010BD000010B5094A90420ED116
:10254000084A09A001F0F4FE1E2206490448FFF7DC
:10255000C9FF0B480068016821F00401016010BD4B
:10256000CC0100201C000020BDD3CAD5B5BD256418
:10257000B8F6D7D6B7FBA3BA25730D0A0000000042
:102580005C020020704770B5044690F88000012876
:102590001DD0012084F880002420C4F88400206825
:1025A0000568026822F0010202602068826822F059
:1025B00060620A438260204601F048FB20680560A3
:1025C0002020C4F88400002084F8800070BD022020
:1025D00070BD70B5044690F8800001281DD0012020
:1025E00084F880002420C4F884002068056802680C
:1025F00022F0010202602068826822F060420A43F1
:102600008260204601F022FB206805602020C4F88B
:102610008400002084F8800070BD022070BD7047E7
:10262000704770472DE9F04103680446D86919687E
:102630009A6840F60F0528424FF0000509D186063A
:102640007ED501F0200602F080573E4378D0216FFE
:1026500027E1A94EA94F16400F40374370D0C70756
:1026600009D0CF0507D501271F62D4F88C3043F07D
:102670000103C4F88C3083070AD5D30708D0276834
:1026800002233B62D4F88C3043F00403C4F88C304E
:1026900043070AD5D30708D0276804233B62D4F840
:1026A0008C3043F00203C4F88C3003070CD501F0E2
:1026B0002003334308D0266808233362D4F88C30D3
:1026C00043F00803C4F88C3003050BD54B0109D542
:1026D00026684FF400633362D4F88C3043F0200353
:1026E000C4F88C30D4F88C30002B3AD0800609D551
:1026F00001F0200002F08051084303D0216F09B19E
:1027000020468847D4F88C0021688968490602D49D
:1027100010F0280F27D0204601F0D0FB20688068F9
:1027200040061BD52068083050E8001F21F040010A
:1027300040E80012002AF5D1E06F78B1704900E05E
:1027400017E08163E06FFEF7D4F9002809D0E06F4D
:10275000816B00E02046BDE8F04108472046FFF7C6
:1027600060FFBDE8F0812046FFF75BFFC4F88C50A6
:10277000F7E7E76E2026012F7ED1C7067CD5CF066E
:102780007AD51020186220688068400642D5E16F33
:10279000086840680004000CE3D0B4F85C20824272
:1027A000DFD9A4F85E000868006880062BD4206892
:1027B00050E8001F21F4807140E80012002AF6D191
:1027C0002068083050E8001F21F0010140E80012A5
:1027D000002AF5D12068083050E8001F21F04001A0
:1027E00040E80012002AF5D1C4F88860E566216847
:1027F00051E8000F20F0100041E80002002AF6D155
:10280000E06FFEF741F9B4F85C00B4F85E10401ACE
:1028100081B22CE0B4F85C00B4F85E10401A81B2CA
:10282000B4F85E0000289CD000299AD0226852E8B3
:10283000000F20F4907042E80003002BF6D12E4BDD
:10284000DB432068083050E8002F1A4040E800279A
:10285000002FF6D1C4F88860E5662567226852E843
:10286000000F20F0100042E80003002BF6D12046B4
:10287000FFF762FE75E7FFE7C70209D5570207D5E4
:102880004FF4801018622046BDE8F041FFF7C8BE43
:1028900003060AD501F0800302F40002134304D0BA
:1028A000616F00297FF456AF5BE7420611D54A06F7
:1028B0000FD52046016851E8002F22F0400241E880
:1028C0000023002BF6D1C0F88460456700F010F9B2
:1028D00047E7020206D54A0004D52046BDE8F0418C
:1028E000FFF79DBEC001C5D50029C3DA2046BDE86B
:1028F000F041FFF747BE0000010000102001000476
:10290000B93D000810B5040003D0D4F8840010B11C
:1029100007E0012010BD002084F88000204600F070
:1029200027F82420C4F884002068016821F0010100
:102930000160204601F004FB0128EBD0A06A10B131
:10294000204601F0A5F92068416821F490414160DA
:102950002068816821F02A0181602068016841F0C7
:10296000010101602046BDE8104001F0F5B900000A
:1029700070B598B00646142111A8FDF783FC4421D8
:102980006846FDF77FFC26493068884245D1012022
:102990000025CDE900056846FEF728FC08B1FDF7E3
:1029A0002BFD2049086E40F480400866086E00F454
:1029B00080401690C86C40F00100C864C86C11A932
:1029C00000F0010016904FF4C06011900220CDE994
:1029D00012050720CDE914504FF09040FEF7DAF9C8
:1029E000124C114820601820C4E901058020C4E978
:1029F00003506561A561E56120462562FEF712F985
:102A000008B1FDF7F9FCF46700220E212520A6622B
:102A1000FEF754FB2520FEF743FB18B070BD000005
:102A20000038014000100240080002405C02002013
:102A3000704770472DE9F8430446D0F884001F46DC
:102A400016460D46202851D1DDB1D6B194F880004C
:102A500001284BD0012084F880004FF00008C4F812
:102A60008C802120C4F884001834FEF7C1FAA687B0
:102A70008146E68754F8100C183CB0F5805F03D00F
:102A800004E00120BDE8F883206920B12E4600252E
:102A900084F8808010E00026FAE78021204601F0CB
:102AA000DBFBB8B9C6B116F8010B21688862B4F82F
:102AB0005600401EA4F85600B4F856004B464FF09E
:102AC000000200970028E8D14FF04001204601F0B5
:102AD000C3FB30B10320D5E735F8020BC0F3080083
:102AE000E3E72020C4F884000020CBE70220C9E7F8
:102AF0007047FEE700B585B014216846FDF7C2FBBC
:102B00004FF6FF70009000200321CDE902010190F3
:102B100069460248FEF73EF905B000BD00080048CE
:102B200000B585B014216846FDF7ACFB4FF6FF7089
:102B3000009001200190032003900020029069463C
:102B40000248FEF727F905B000BD00000008004864
:102B500070B5002406462146204600F003F900F037
:102B600041F94FF49635304600F010F9641CAC4240
:102B7000F9D370BD30B587B014216846FDF782FBEC
:102B80001E48C16C41F00401C164C16C01F0040134
:102B90000591C16C41F00101C164C16C01F00101FA
:102BA0000591C16C41F00201C164C06C012500F0C7
:102BB000020005904FF44870CDE90005002403940D
:102BC000694602940E48FEF7E5F828020394009047
:102BD000CDE901544FF0904469462046FEF7DAF8FB
:102BE000FFF79EFFA06940F48070A0610448183090
:102BF000016841F40871016007B030BD0010024067
:102C000000040048203AD2B2034B02EB420203EB2D
:102C1000021200F019B800008C490008F0B50E4609
:102C20000746002540F23F1407E021463846FFF7EB
:102C3000E9FF103C6D1CA4B2761C3278002A01D04A
:102C4000142DF2D3F0BD00002DE9F04791468A46DD
:102C50000026044600F086F8DFF84080012700BF18
:102C600000F0C0F85FF0000539F8160007FA05F12A
:102C70000842404601D1408800E0008800F086F814
:102C80006D1C102DF0D3641CE4B25146204600F0B8
:102C900069F8761C182EE3D3BDE8F0870000002009
:102CA00010B5FFF767FF002000F014F8084CA08073
:102CB000A088A0F50241303906D000F09BFB00202F
:102CC00000F008F8A08010BD00F00BFBF7E7000053
:102CD0000000002070B51D490A6842F400720A60C5
:102CE0000A6842F480720A60184C103C226842F074
:102CF00020022260164A1060086840F02000086038
:102D000000BF00BF00BF206840F0200020602068A6
:102D100040F480702060FFF7EDFE4FF09041886A2C
:102D200040F48070886200BF00BF00BF0848001FE9
:102D3000006885B2886940F480708861FFF7F0FE12
:102D4000206840F400702060284670BD28040048C8
:102D50001408004801B5BDF800000149488008BDCD
:102D60000000002010B50C460146202000F068F855
:102D70002146BDE81040212000F062B801B5BDF841
:102D800000000149088008BD00000020134A1168B6
:102D900041F400711160114910390B6843F48073DC
:102DA0000B600B6843F020030B600D4B186010683C
:102DB00040F02000106000BF00BF00BF086840F076
:102DC00020000860086840F48070086000BF00BF01
:102DD00000BF086840F4007008607047280400488D
:102DE000140800481449086840F400700860086836
:102DF00040F48070086010481038026842F02002E9
:102E000002600E4B22221A600A6842F020020A6019
:102E100000BF00BF00BF016841F0200101600168F0
:102E200041F48071016000BF00BF00BF016841F440
:102E30000071016070470000280400481408004831
:102E4000184B10B51A6842F400721A601A6842F4FE
:102E500080721A60134A103A146844F02004146017
:102E6000114C2060186840F02000186000BF00BFBF
:102E700000BF106840F020001060106840F48070BF
:102E800010602160186840F02000186000BF00BF8B
:102E900000BF106840F020001060106840F480709F
:102EA000106010BD280400481408004800EB8100A1
:102EB000006E00F0F84070478068C0F3C0007047B3
:102EC0008068C0F380007047042303EAD15310B533
:102ED00018444369C1F3045107248C40A3438A403A
:102EE0001343436110BD00EB8100016E21F00041EE
:102EF000114301667047000030B589B02021684653
:102F0000FDF7C0F919481849002401604FF4403119
:102F1000C0E90114C46004250461C0E905450477D3
:102F200044770121016280F82440C462046380F880
:102F30003840C46380F84040FDF76CFC08B1FDF7F1
:102F40005BFA0B4800900620CDE901047F20059430
:102F5000CDE9030569460548FDF750FA002801D080
:102F6000FDF74AFA09B030BD000100507C00002096
:102F70000080F03E0D4808B5816C41F00401816489
:102F8000816C01F004010091816C41F001018164C8
:102F9000806C002200F00100009011460B20FEF72B
:102FA0008DF8BDE808400B20FEF77AB8001002400B
:102FB000F0B587B014216846FDF764F92D48C16C5F
:102FC00041F00401C164C16C01F004010591C16CC0
:102FD00041F02001C164C16C01F020010591C16C78
:102FE00041F00101C164C16C01F001010591C16CA6
:102FF00041F00201C164C16C01F002010591C16C94
:1030000041F00801C164C06C1B4E00F008004FF491
:103010007F440590012221463046FDF7E4FF174F1B
:10302000002204213846FDF7DEFF0125CDE90045E9
:103030000024CDE9025469463046FDF7ABFECDE9E8
:10304000005469464FF090400294FDF7A3FE07201C
:10305000CDE9000469460A480294FDF79BFE04206E
:10306000CDE90005CDE9025469463846FDF792FEE8
:1030700007B0F0BD0010024000080048000C0048F6
:103080000004004810B594B01C210DA8FDF7FAF813
:1030900034216846FDF7F6F820481F4900240160F6
:1030A000A921C0E9011440F2E731C0E903144461E9
:1030B0008461FEF7F0FD08B1FDF79EF91748FFF7B0
:1030C00092F908B1FDF798F960200D9040F2572071
:1030D000CDE90E0410941194129400220DA90F480A
:1030E0001394FFF7EEF808B1FDF786F900944FF45A
:1030F0000050CDE90440019402940394069469467B
:1031000006480C94FEF71EFD08B1FDF775F903485B
:10311000FFF79CF814B010BD00440140800100206E
:1031200010B58EB000240794089409940A940B9467
:103130000C941C2168460D94FDF7A4F81E484FF02E
:10314000804101601021C0E9011440F6C311C0E9BB
:10315000031480218161FEF79EFD08B1FDF74CF953
:103160004FF48050079007A91348FEF72FFE08B1CF
:10317000FDF742F91048FFF736F908B1FDF73CF9C1
:103180000B940BA90C480D94FEF736FD08B1FDF722
:1031900033F96020CDE90004029404226946064810
:1031A0000494FFF78EF808B1FDF726F90248FFF7FF
:1031B0004DF80EB010BD0000E800002010B590B032
:1031C000002409940A940B94142104A80C94FDF78C
:1031D00059F827480D940F940E940094019402948A
:1031E000224903940160A921C0E9011440F2E731AA
:1031F000C0E903148461FEF74EFD08B1FDF7FCF849
:103200004FF48050099009A91948FEF7DFFD08B175
:10321000FDF7F2F81648FEF7E9FE08B1FDF7ECF805
:10322000042004906020CDE9050404A91048089406
:10323000FFF70DF908B1FDF7DFF80D940DA90C4863
:103240000F94FEF7D9FC08B1FDF7D6F80120CDE9BF
:10325000004002940422694605480394FEF737FEB5
:10326000002801D0FDF7C8F810B010BD00040040E0
:1032700034010020184810B5164901604FF416516A
:103280004160002181600C22C160C0E904128161AB
:10329000C161016241628162FFF734FB08B1FDF751
:1032A000ABF800210C48FFF794F908B1FDF7A4F83A
:1032B00000210948FFF767F908B1FDF79DF80648B6
:1032C000FFF7F1F8002803D0BDE81040FDF794B8EF
:1032D00010BD000000380140CC010020FEE7FEE7F1
:1032E000704730B501210020FFF7AAFD4FF47A7036
:1032F000FDF774F800210120FFF7A2FD41F2907163
:103300001020FFF79DFD4FF41C516020FFF798FD42
:1033100001216120FFF794FD02214620FFF790FD77
:1033200048F210011320FFF78BFD48F2FE01122036
:10333000FFF786FD4FF4A0610220FFF781FD41F207
:1033400030010320FFF77CFD40F20334214630209A
:10335000FFF776FD21463120FFF772FD214632202E
:10336000FFF76EFDE51E29463320FFF769FD0321B7
:103370003420FFF765FD21463520FFF761FD14215C
:103380003620FFF75DFD21463720FFF759FD214626
:103390003820FFF755FD21463920FFF751FD29461A
:1033A0003A20FFF74DFD03213B20FFF749FD214661
:1033B0003C20FFF745FD4FF4A0513D20FFF740FDB5
:1033C0004FF400719220FFF73BFD21469320FFF759
:1033D00037FD40F60D019020FFF732FD41F2180154
:1033E0000320FFF72DFDBDE8304040F273110720A8
:1033F000FFF726BD10B543F20801E320FFF720FDDB
:103400001221E720FFF71CFD41F23121EF20FFF7E9
:1034100017FD00210120FFF713FD4FF4E0610220AA
:10342000FFF70EFD41F230010320FFF709FD0021F7
:103430000420FFF705FD40F207210820FFF700FDFB
:1034400000210920FFF7FCFC00210A20FFF7F8FC0F
:1034500000210C20FFF7F4FC00210D20FFF7F0FC09
:1034600000210F20FFF7ECFC00211020FFF7E8FC03
:1034700007211120FFF7E4FC00211220FFF7E0FCF8
:1034800000211320FFF7DCFCC820FDF771FC41F29E
:1034900090611020FFF7D4FC40F227211120FFF7A4
:1034A000CFFC3220FDF764FC1D211220FFF7C8FC81
:1034B0003220FDF75DFC4FF400611320FFF7C0FCE4
:1034C00014212920FFF7BCFC0B212B20FFF7B8FCAF
:1034D0003220FDF74DFC00212020FFF7B1FC002138
:1034E0002120FFF7ADFC07213020FFF7A9FC40F2B7
:1034F00007713120FFF7A4FC06213220FFF7A0FC62
:1035000040F204713520FFF79BFC41F60471362030
:10351000FFF796FC04213720FFF792FC00213820AA
:10352000FFF78EFC40F206713920FFF789FC40F26C
:1035300001713C20FFF784FC0F213D20FFF780FC48
:1035400000215020FFF77CFCEF215120FFF778FC91
:1035500000215220FFF774FC40F23F115320FFF787
:103560006FFC4FF41C516020FFF76AFC01216120C1
:10357000FFF766FC00216A20FFF762FC0021802033
:10358000FFF75EFC00218120FFF75AFC002182201A
:10359000FFF756FC00218320FFF752FC0021842016
:1035A000FFF74EFC00218520FFF74AFC10219020F8
:1035B000FFF746FC00219220FFF742FC03219320F5
:1035C000FFF73EFC4FF488719520FFF739FC00218E
:1035D0009720FFF735FC00219820FFF731FC41F2DE
:1035E00018010320FFF72CFCBDE8104040F27311D6
:1035F0000720FFF725BC7047FDF700BD00B593B06D
:1036000038216846FCF73EFE14210EA8FCF73AFE6E
:103610000020FDF785FD0220C101039140210491A6
:103620000421CDE9080100905521CDE90A10079049
:103630000C900D906846FEF767F808B172B6FEE789
:103640000F200E9003200F900020109011901290E8
:1036500004210EA8FDF70EFF002801D072B6FEE788
:1036600013B000BD0248016841F470010160704769
:1036700088ED00E00148FEF7EBBC0000E800002008
:103680000148FEF7E5BC0000340100202DE9F043BD
:103690000268234B234D244E244C4FF0804998421E
:1036A00007D0484505D0A84203D0B04201D0A0427F
:1036B00003D122F070074A683A431D4FDFF874C007
:1036C000DFF8748098420DD048450BD0A84209D04D
:1036D000B04207D0A04205D0B84203D0604501D027
:1036E000404503D122F44075CA682A434D6922F04F
:1036F00080022A4302608A68C2620A688262984233
:1037000007D0A04205D0B84203D0604501D0404563
:1037100001D10969016301214161BDE8F083000025
:10372000002C01400004004000080040003401402B
:1037300000400140004401400048014010B5846849
:1037400042EA032224F47F440A432243826010BDEC
:103750008268034B1A400A4342F0070181607047B8
:103760008FFFCFFF2DE9F043026A22F001020262CF
:10377000056A436882691C4C25F0020522400C68EA
:1037800022F0030214438A68194E2A43174D194F39
:10379000DFF864C0DFF86490A84207D0B04205D0DB
:1037A000B84203D0604501D0484506D122F0080850
:1037B000CA6842EA080222F00402A84207D0B042D6
:1037C00005D0B84203D0604501D0484505D14D69C8
:1037D00023F440731D438B692B4343608461496824
:1037E00041630262BDE8F0838FFFFEFF002C0140C1
:1037F00000340140004001400044014000480140C5
:10380000F0B5026A22F010020262056A426883691A
:10381000194C1B4E23400C6823F4407343EA0424E4
:1038200025F020038D6843EA0513144DA84201D00A
:10383000B04206D1CF6823F0800343EA071323F098
:103840004003A8420AD0B04208D00E4DA84205D08D
:103850000D4DA84202D00D4DA84207D14D6922F46A
:10386000406242EA85028D6942EA850242608461D3
:10387000496881630362F0BDFF8FFFFE002C0140A9
:103880000034014000400140004401400048014034
:10389000F0B5026A22F480720262056A4368C26966
:1038A000194C1B4E22400C6822F00302144325F4ED
:1038B00000728D6842EA0522144DA84201D0B04240
:1038C00006D1CF6822F4006242EA072222F4806225
:1038D000A8420AD0B04208D00E4DA84205D00E4DE5
:1038E000A84202D00D4DA84207D14D6923F44053A0
:1038F00043EA05138D6943EA05134360C4614968CF
:10390000C1630262F0BD00008FFFFEFF002C01408A
:1039100000340140004001400044014000480140A3
:10392000F0B5026A22F480520262056A4268C369F5
:10393000194C1B4E23400C6823F4407343EA0424C3
:1039400025F400538D6843EA0533144DA84201D095
:10395000B04206D1CF6823F4004343EA073323F48F
:103960008043A8420AD0B04208D00E4DA84205D0EC
:103970000D4DA84202D00D4DA84207D14D6922F449
:10398000404242EA85128D6942EA85124260C46172
:10399000496801640362F0BDFF8FFFFE002C014007
:1039A0000034014000400140004401400048014013
:1039B00030B5026A22F480320262046A4268036D02
:1039C000114D2B400D681D4324F400330C8943EA4C
:1039D00004430E4CA0420BD00D4CA04208D00D4C1D
:1039E000A04205D00C4CA04202D00C4CA04204D105
:1039F0004C6922F4803242EA04224260056549683B
:103A00008164036230BD00008FFFFEFF002C014087
:103A100000340140004001400044014000480140A2
:103A200030B5026A22F480120262046A4268036DB1
:103A3000114D24F400142B400D6843EA05230D8931
:103A400044EA05540D4DA8420BD00D4DA84208D0B4
:103A50000C4DA84205D00C4DA84202D00B4DA842F7
:103A600004D14D6922F4802242EA85224260036536
:103A70004968C164046230BDFF8FFFFE002C014025
:103A80000034014000400140004401400048014032
:103A900070B505680024AA682E4B1A404B68134382
:103AA0002D4A13400A681A43AA604A68602A4AD01D
:103AB0000DDC302A1FD005DCEAB1102A1BD0202AE9
:103AC00018D118E0402A1FD0502A13D135E0234DD9
:103AD000531BAA420FD009DC702A0ED0B2F1101F7E
:103AE00009D0203AB2F5801F04D104E0102B02D097
:103AF000402B00D00124204670BD0B69D1E9022182
:103B00000068FFF71BFEF6E70A68052A13D0B2F13A
:103B1000011F10D00268136A156A25F001051562AD
:103B200002689569096925F0F00545EA011191617E
:103B300000680362DFE7012070BD0A6989680068D8
:103B400000F00EF8D7E70A698968006800F050F8BD
:103B5000D1E700008FFFCFFFF8FFFEFF300010001D
:103B600010B5036A046A24F001040462846924F035
:103B7000F00444EA021423F00A020A438461026258
:103B800010BD000070B5046A24F001040462846969
:103B9000056A124EB0420ED0B0F1804F0BD0104EDD
:103BA000B04208D00F4EB04205D00F4EB04202D006
:103BB0000E4EB04203D124F00304144301E044F05C
:103BC00001041A0724F0F00444EA126225F00A0303
:103BD00001F00A0119438261016270BD002C0140AD
:103BE0000004004000080040003401400040014053
:103BF00010B5036A23F0100303628369046A23F497
:103C0000704343EA023224F0A00343EA01118261C7
:103C1000016210BD30B5046A24F0100404628469A6
:103C2000056A24F4407444EA022222F470444FF6F8
:103C3000FF7202EA03322243A02425F0A00304EA23
:103C4000011119438261016230BD000030B5416E3F
:103C5000B9B1026891689268C1F342610B4B520F8F
:103C60009C5CE50003F10804A25CB5FBF2F2A0F84D
:103C70006A205A5C615CD200B2FBF1F1A0F86810D6
:103C800030BD0121A0F86A10F8E70000745B00085D
:103C900090F82810C90706D001684A68C36A22F460
:103CA00000321A434A6090F82810890706D5016847
:103CB0004A68036B22F480321A434A6090F8281055
:103CC000490706D501684A68436B22F480221A43EB
:103CD0004A6090F82810090706D501684A68836B86
:103CE00022F400421A434A6090F82810C90606D50B
:103CF00001688A68C36B22F480521A438A6090F884
:103D00002810890606D501688A68036C22F40052DF
:103D10001A438A6090F82810490611D501684A684C
:103D2000436C22F480121A434A60416CB1F5801F43
:103D300006D101684A68836C22F4C0021A434A60C3
:103D400090F82810090606D501684A68C06C22F46C
:103D5000002202434A607047F8B500260446C0F8C6
:103D60008C60FDF745F90546206800686FF07E47D6
:103D7000000708D52B4600224FF40011204600977B
:103D800000F06AFA60B92068006840070AD52B463F
:103D900000224FF480012046009700F05DFA08B140
:103DA0000320F8BD2020C4F88400C4F8880044F83B
:103DB0006C6F00202675F8BD10B5806A0021A0F850
:103DC0005E10A0F85610FEF72CFC10BD70B5846A8A
:103DD000D4F88400D4F88850216889684FF0000630
:103DE000090606D5212804D1A4F85660204600F023
:103DF0008FF820688068400606D5222D04D1A4F8EB
:103E00005E60204600F05AF8D4F88C0040F01000B4
:103E1000C4F88C002046FEF704FC70BD10B50146C6
:103E2000806A0968096889062ED40021A0F85E100E
:103E3000016851E8002F22F4807241E80023002B32
:103E4000F6D10168083151E8002F22F0010241E863
:103E50000023002BF5D10168083151E8002F22F032
:103E6000400241E80023002BF5D12021C0F8881042
:103E7000C16E012908D1026852E8001F21F010012B
:103E800042E80013002BF6D1C16E012902D0FEF7E3
:103E9000CFFD10BDB0F85C10FEF74EFB10BD10B5A5
:103EA000806AC16E012902D0FEF7C3FD10BDB0F8D3
:103EB0005C104908FEF740FB10BD000010B5026819
:103EC00052E8001F21F4907142E80013002BF6D154
:103ED0000E4B0268083252E8001F194042E80014F5
:103EE000002CF6D1C16E012908D1016851E8002FDC
:103EF00022F0100241E80023002BF6D12021C0F867
:103F000088100021C166016710BD0000FEFFFFEFB1
:103F1000026852E8001F21F0C00142E80013002BA4
:103F2000F6D10168083151E8002F22F4000241E87F
:103F30000023002BF5D12021C0F884107047000029
:103F40002DE9F0410446016880682269E369104365
:103F5000626900251A431043DFF82CC20A688B4BB4
:103F60001A4002430A6020684168E26821F4405127
:103F7000114341602168A069614501D0226A104364
:103F80008A68834B1A4002438A602068C16A626A69
:103F900021F00F011143C1627E4923687E488B42A4
:103FA0000DD1D0F8880010F0030006D0012855D0BC
:103FB000022842D003283FD152E001203DE077495A
:103FC0008B420BD1D0F8880010F00C0035D00428BB
:103FD00033D0082840D00C282ED141E070498B42C4
:103FE0000BD1D0F8880010F0300026D0102835D042
:103FF000202831D030281FD132E06A498B420BD1C2
:10400000D0F8880010F0C00017D0402826D08028B3
:1040100022D0C02810D123E063450DD1D0F888000C
:1040200010F4406009D0B0F5806F17D0B0F5006F84
:1040300012D0B0F5406F13D010205B495B4F0026C3
:104040004FF4004263453BD160B1022813D00428ED
:104050000BD0082872D10DE00220EEE70420ECE737
:104060000820EAE7FDF7F4FA01E0FDF715FB01008F
:1040700001D17CE01146606A37F810206768B1FB17
:10408000F2F007EB4703834270D8B0EB073F6DD8DF
:10409000002308461946FCF7BDF8090241EA106101
:1040A00002027808101871413A460023FCF7B2F872
:1040B0003F4AA0F54071914258D82168C86056E047
:1040C000E3694FF6EF7893422CD109284ED2DFE80E
:1040D00000F00508114D0D4D4D4D1000FDF7B8FADB
:1040E00001E0FDF7C7FA010004D140E0FDF7D4FA82
:1040F000F9E71146606A37F81000B1FBF0F04100B3
:10410000606801EB5001B1FBF0F0A0F110014145F6
:104110002CD84FF6F0710140C0F3420001432068F3
:10412000C16024E0092821D2DFE800F0050912204F
:104130000E2020201100FDF78BFA02E016E0FDF7BB
:1041400099FA010004D112E0FDF7A6FAF9E7114649
:10415000606A37F81000B1FBF0F1606801EB5001C4
:10416000B1FBF0F0A0F1100141450AD90125012071
:10417000A4F86A0024F8680F2846A660E660BDE847
:10418000F08180B299E7000000800040F369FFCF22
:10419000FFF4FF11003801400010024000440040CD
:1041A00000480040004C00400024F4005C5B000824
:1041B000FFFC0F0070B58165A0F85C200025044667
:1041C000C0F88C502220C4F88800E06FD8B11F4995
:1041D000C162E16F1E4813460863E16F1D484863E2
:1041E000E06F8563A66D216832462431E06FFCF7ED
:1041F00079FD40B11020C4F88C0004F8805F2020C5
:10420000A060012070BD84F88050206940B1216811
:1042100051E8000F40F4807041E80002002AF6D116
:104220002068083050E8001F41F0010140E800120A
:10423000002AF5D12068083050E8001F41F0400105
:1042400040E80012002AF5D1002070BD1D3E000894
:104250009F3E0008CD3D00082DE9F0479A461746DD
:104260000E4604464FF000094FF02008089D4AE032
:10427000681C48D0FCF7BCFEA0EB0A00A8422AD874
:104280004DB32068016849073DD5C069C0430005AA
:1042900039D421684FF400600862206850E8001F9C
:1042A00021F4D07140E80012002AF6D120680830CD
:1042B00050E8001F21F0010140E80012002AF5D16A
:1042C00044F8848FC4F80480C4F8088004F8049C7F
:1042D0000320BDE8F087216851E8000F20F4D0707A
:1042E00041E80002002AF6D12068083050E8001F9B
:1042F00021F0010140E80012002AF5D144F8848F32
:10430000C4F80480E2E72068C06936EA000004D0FF
:104310000020B842ACD00020DBE70120F9E7000024
:104320000148FEF77FB90000CC010020FEE7000045
:104330000FB4054B10B503A9044A029800F028F801
:1043400010BC5DF814FB00003D460008180000207A
:104350000907090E002804DB00F1E02080F80014B2
:10436000704700F00F0000F1E02080F8141D704746
:1043700002E008C8121F08C1002AFAD1704770472E
:10438000002001E001C1121F002AFBD1704700008C
:104390002DE9FF4F8BB09A460F460546002606E0F2
:1043A00025280BD052460D9990476D1C761C287815
:1043B0000028F5D10FB03046BDE8F08F0024A046AC
:1043C0000122604900E0044315F8013F203B02FA56
:1043D00003F00842F7D128782E2817D115F8010FDD
:1043E00044F004042A280ED06FF02F022878A0F1A0
:1043F000300109290AD808EB880102EB410100EBE2
:1044000001086D1CF2E757F8048B6D1C28786928A9
:104410003ED006DC0028CDD063280BD0642804D120
:1044200036E0732810D075284BD052460D9990472E
:10443000761C85E017F8040B8DF8000000208DF83D
:104440000100E946012003E057F8049B4FF0FF30DC
:1044500061074FF0000401D40AE0641C44450DDA02
:104460008442FADB19F804100029F6D106E0641C36
:104470008442FCDB19F804100029F8D1264404E03A
:1044800019F8010B52460D999047641EF8D257E077
:1044900001CF4FF00A0B002802DA40422D2102E042
:1044A000210504D52B218DF82410012103E0E1071B
:1044B00005D02021F7E70DF1200908910CE000213B
:1044C000F9E701CF4FF00A0BF9E75946FBF7E5FE94
:1044D00001F1300209F8012D0028F6D1ADEB0900F9
:1044E00000F1200B600701D44FF00108D84502DD30
:1044F000A8EB0B0000E000208046002406E009A89D
:104500005246005D0D999047641C761C08988442C1
:10451000F5DB04E0302052460D999047761CB8F147
:104520000001A8F10108F5DC05E019F8010B52467D
:104530000D999047761CBBF10001ABF1010BF4DC47
:104540006D1C34E70928010070B504468189806834
:10455000FCF744FD617911B12288521C2280E27877
:104560000025824206D02279521CD2B22271032A3F
:1045700001D3E0702571012051B101290ED002292B
:1045800011D121880F291DD9A078012815D017E055
:10459000E178002907D12580A07003E0E07818B108
:1045A00025800220607170BD20883228FBD9A07957
:1045B00000F050F82580A57070BDA07900F08CF94E
:1045C000657170BDE1780029FBD1A178491CA1700B
:1045D0002580E7E710B507A11820FEF71FFB0BA108
:1045E0006020FEF71BFBBDE810400EA17820FEF70F
:1045F00015BB0000202020202020202044415441D1
:10460000202020202020202000000000202020202A
:1046100020413D3438387553202020202020202090
:10462000000000002020202020423D312E32366D37
:1046300053202020202020200000000013B50A2352
:10464000012269460248FEF7F5F900981CBD0000FA
:10465000CC01002040B1012808D0022808D003284E
:1046600008D105A0FFF764BE06A0FBE708A0F9E7A4
:104670000AA0F7E7704700004234B3A4B0B42E2E6E
:104680002E0D0A004231B3A4B0B42E2E2E0D0A0016
:104690004232B3A4B0B42E2E2E0D0A004233B3A47E
:1046A000B0B42E2E2E0D0A00364E3568FCF7AEFC47
:1046B000FEF7A4FFFEF77CFCFEF7DCFDFEF75AFCDC
:1046C000FEF71AFCFEF77AFDFEF7DCFCFEF728FD8C
:1046D0002DA0FFF72DFE00F03BF91E222E492F489A
:1046E000FDF700FF2E480068016821F00401016019
:1046F000294C2C4920340120A160A081E0700022C7
:10470000A2710222A161A283E074A075A1620421BA
:10471000A18584F8230084F826204FF09041A163FE
:10472000A08784F83300032084F83600FEF7B8FA37
:104730000020FEF70DFA0020FEF70CFB4FF6FF708D
:10474000FEF71CFBDFF860800A353068A842FCD316
:104750005FF0000704EB0710FFF7F6FE7F1CFFB2C7
:10476000042FF7D398F8010030B1012807D00228B0
:10477000EBD100F05DF8E8E7FFF72CFFE5E700F08C
:1047800015F8E2E710000020B4AEBFDAB2E2CAD4F6
:104790002E2E2E0D0A0000001C000020CC0100204F
:1047A0005C020020000400480600002010B509A1AA
:1047B0001820FEF733FA0DA16020FEF72FFA11A1A1
:1047C0007820FEF72BFABDE8104014A19020FEF7E8
:1047D00025BA0000202020202020202050415241D6
:1047E0002020202020202020000000002020202049
:1047F0002050443D31303030487A20202020202085
:1048000000000000202020202050483D3130303072
:10481000487A202020202020000000002020202096
:104820002050583D323030487A202020202020006F
:1048300010B50BA11820FEF7F1F90FA16020FEF7CB
:10484000EDF913A17820FEF7E9F917A19020FEF702
:10485000E5F9BDE810401AA1A820FEF7DFB9000075
:1048600020202020202020205245434420202020AA
:10487000202020200000000020202020204E444145
:104880003D33202020202020202020200000000078
:1048900020202020204E44423D3120202020202076
:1048A000202020200000000020202020204E484111
:1048B0003D3020202020202020202020000000004B
:1048C00020202020204E48423D3220202020202041
:1048D000202020200000000010B590B1012812D047
:1048E000022812D003280BD10BA0FFF721FD0020D6
:1048F000FEF72EF90C49487802280BD0401C48706E
:1049000010BD0AA002E00CA000E00EA0BDE810401F
:10491000FFF70EBD0020F2E7BDE7C3E6C7D0BBBB83
:104920002E2E2E0D0A000000060000204231B5A5F3
:10493000BBF72E2E2E0D0A004232B5A5BBF72E2E48
:104940002E0D0A004233B5A5BBF72E2E2E0D0A0000
:104950000B4810B50168C9B201600168094A1278B4
:1049600041EA02210160084C012204212046FCF7A3
:104970003AFB20460022BDE810400421FCF733BB7F
:104980001408004806000020000C00480000000049
:104990000000000000000000000000000000000017
:1049A0000000000000000000000000000000000007
:1049B0000000000000000000000000000000800176
:1049C00080018001800180018001800180018001DF
:1049D00080018001800180010000000080018001D1
:1049E00000000000000000000000000000000000C7
:1049F000CC00CC00CC00CC00CC00CC0000000000EF
:104A000000000000000000000000000000000000A6
:104A10000000000000000000000000000000000096
:104A20000000000000000000600C600C600C30060C
:104A30003006FE1FFE1F300638071803FE1FFE1F3C
:104A4000180318038C018C018C0100000000800009
:104A5000E003F80F9C0E8C1C8C188C009800F80159
:104A6000E007800E801C8C188C189C18B80CF00F76
:104A7000E003800080000000000000000000000053
:104A800000000E181B0C110C110611061103110366
:104A90009B018E01C038C06C604460443044304497
:104AA0001844186C0C380000000000000000E00101
:104AB000F0033807180618063003F001F000F8007C
:104AC0009C310E33061E061C061C063FFC73F021AB
:104AD00000000000000000000000000000000000D6
:104AE0000C000C000C000C000C000C00000000007E
:104AF00000000000000000000000000000000000B6
:104B000000000000000000000000000000000002A3
:104B100000038001C000C000600060003000300071
:104B200030003000300030003000300060006000A5
:104B3000C000C0008001000300020000000020004F
:104B40006000C00080018001000300030006000631
:104B5000000600060006000600060006000300032B
:104B600080018001C0006000200000000000000003
:104B70000000000000000000C000C000D806F807D8
:104B8000E0013003380700000000000000000000D2
:104B90000000000000000000000000000000000015
:104BA0000000000000000000800180018001800101
:104BB0008001FC3FFC3F8001800180018001800179
:104BC00000000000000000000000000000000000E5
:104BD00000000000000000000000000000000000D5
:104BE0000000000000000000000000000000800144
:104BF00080010001000180000000000000000000B2
:104C000000000000000000000000000000000000A4
:104C100000000000E007E0070000000000000000C6
:104C20000000000000000000000000000000000084
:104C30000000000000000000000000000000000074
:104C40000000000000000000000000000000C000A4
:104C5000C000000000000000000000000000000C88
:104C6000000C00060006000600030003000380039A
:104C7000800180018001C000C000C00060006000B1
:104C80000000000000000000000000000000E00341
:104C9000F007380E180C0C180C180C180C180C18FF
:104CA0000C180C180C180C18180C380EF007E00330
:104CB00000000000000000000000000000000001F3
:104CC0008001C001F001980188018001800180010C
:104CD00080018001800180018001800180018001CC
:104CE0000000000000000000000000000000E003E1
:104CF000F80F180C0C180C1800180018000C0006FF
:104D000000038001C000600030001800FC1FFC1F81
:104D10000000000000000000000000000000E001B2
:104D2000F807180E0C0C0C0C000C0006C003C00792
:104D3000000C001800180C180C18180CF807E003E9
:104D40000000000000000000000000000000000C57
:104D5000000E000F000F800DC00C600C600C300CBA
:104D6000180C0C0CFC3FFC3F000C000C000C000C61
:104D70000000000000000000000000000000F80F2C
:104D8000F80F180018000C00EC03FC071C0E001CA8
:104D90000018001800180C181C0C180EF807E00377
:104DA0000000000000000000000000000000C0073C
:104DB000F00F381C181818000C00CC03EC0F3C0E38
:104DC0001C1C0C180C180C18181C380EF007E003EB
:104DD0000000000000000000000000000000FC1FB8
:104DE000FC1F000C00060006000380038001C001C8
:104DF000C000E00060006000700030003000300053
:104E00000000000000000000000000000000E003BF
:104E1000F007380E180C180C180C3806F007F007BD
:104E2000180C0C180C180C180C18380CF80FE003A0
:104E30000000000000000000000000000000E0038F
:104E4000F007380E1C0C0C180C180C181C1C381E03
:104E5000F81BE0190018000C000C1C0EF807F001FC
:104E60000000000000000000000000000000000042
:104E70000000000000000000800180010000000030
:104E80000000000000000000000000008001800120
:104E90000000000000000000000000000000000012
:104EA0000000000000000000800180010000000000
:104EB00000000000000000000000000080018001F0
:104EC0000001000180000000000000000000000060
:104ED0000000000000000000000000000010001CA6
:104EE000800FE003F8001800F800E003800F001CBA
:104EF00000100000000000000000000000000000A2
:104F0000000000000000000000000000F81F00008A
:104F100000000000F81F000000000000000000007A
:104F20000000000000000000000000000000000081
:104F30000000000000000000000000000800380031
:104F4000F001C007001F0018001FC007F001380063
:104F50000800000000000000000000000000E00366
:104F6000F80F180C0C180C180018000C00060003A1
:104F70008001C000C000C00000000000C000C000F0
:104F80000000000000000000000000000000000021
:104F9000E00718180420C229224A11440944094490
:104FA000094409221113E20C024004201818E007FA
:104FB000000000000000000000000000000080036E
:104FC0008003C006C006C006600C600C30183018A4
:104FD0003018F83FF83F1C700C600C6006C006C02B
:104FE0000000000000000000000000000000FC03C2
:104FF000FC0F0C0C0C180C180C180C0CFC07FC0FFC
:105000000C180C300C300C300C300C18FC1FFC074A
:105010000000000000000000000000000000C007C9
:10502000F01F38381C300C700660060006000600C1
:1050300006000600060006600C701C30F01FE0073A
:105040000000000000000000000000000000FE035F
:10505000FE0F060E0618061806300630063006301B
:1050600006300630063006180618060EFE0FFE0340
:105070000000000000000000000000000000FC3FF5
:10508000FC3F0C000C000C000C000C00FC1FFC1F73
:105090000C000C000C000C000C000C00FC3FFC3F52
:1050A0000000000000000000000000000000F83FC9
:1050B000F83F18001800180018001800F81FF81F13
:1050C0001800180018001800180018001800180020
:1050D0000000000000000000000000000000E00FE1
:1050E000F83F3C780E6006E007C00300030003FEB3
:1050F00003FE03C007C006C00EC03CF0F83FE00F3F
:1051000000000000000000000000000000000C3063
:105110000C300C300C300C300C300C30FC3FFC3FB1
:105120000C300C300C300C300C300C300C300C309F
:1051300000000000000000000000000000008001EE
:105140008001800180018001800180018001800157
:105150008001800180018001800180018001800147
:105160000000000000000000000000000000000639
:1051700000060006000600060006000600060006FF
:10518000000600060006180618063807F003E001BE
:1051900000000000000000000000000000000630D9
:1051A0000618060C060606038601C6006600760091
:1051B000DE008E0106030606060C061806300660A1
:1051C00000000000000000000000000000001800C7
:1051D000180018001800180018001800180018000F
:1051E000180018001800180018001800F81FF81F01
:1051F00000000000000000000000000000000EE0C1
:105200001EF01EF01EF036D836D836D836D866CC0A
:1052100066CC66CCC6C6C6C6C6C6C6C686C386C368
:1052200000000000000000000000000000000C3042
:105230001C303C303C306C306C30CC30CC308C315D
:105240000C330C330C360C360C3C0C3C0C380C304C
:105250000000000000000000000000000000E00767
:10526000F81F1C380E70066003C003C003C003C0E3
:1052700003C003C003C006600E701C38F81FE007AF
:105280000000000000000000000000000000FC0F13
:10529000FC1F0C380C300C300C300C300C18FC1F80
:1052A000FC070C000C000C000C000C000C000C00A7
:1052B0000000000000000000000000000000E00707
:1052C000F81F1C380E70066003E003C003C003C063
:1052D00003C003C007E006630E3F1C3CF83FE0F745
:1052E00000C0000000000000000000000000FE0FF1
:1052F000FE1F06380630063006300638FE1FFE0751
:1053000006030606060C0618061806300630066068
:105310000000000000000000000000000000E003AA
:10532000F80F1C0C0C180C180C001C00F803E00FF4
:10533000001E0038063006300E301C1CF80FE00747
:105340000000000000000000000000000000FE7FE0
:10535000FE7F800180018001800180018001800149
:105360008001800180018001800180018001800135
:1053700000000000000000000000000000000C30F1
:105380000C300C300C300C300C300C300C300C303D
:105390000C300C300C300C300C301818F81FE007B3
:1053A000000000000000000000000000000003609A
:1053B0000630063006300C180C180C18180C180C97
:1053C000380E30063006700760036003C001C0016C
:1053D000000000000000000000000000000003606A
:1053E000C361C361C3616633663366336633663354
:1053F00066336C1B6C1B6C1B2C1A3C1E380E380E53
:1054000000000000000000000000000000000FE0AD
:105410000C7018303018700C600EC00780038003C9
:10542000C003E006700C301C18180C300E6007E04A
:10543000000000000000000000000000000003C0A9
:1054400006600C301C383818300C6006E007C003CA
:105450008001800180018001800180018001800144
:105460000000000000000000000000000000FC7FC1
:10547000FC7F006000300018000C00060003800173
:10548000C0006000300018000C000600FE7FFE7FA8
:105490000000000000000000000000000000E00329
:1054A000E003600060006000600060006000600079
:1054B00060006000600060006000600060006000EC
:1054C000600060006000E003E003000000003000C6
:1054D0003000600060006000C000C000C000C0017B
:1054E0008001800180010003000300030006000624
:1054F0000000000000000000000000000000E003C9
:10550000E0030003000300030003000300030003A3
:105510000003000300030003000300030003000373
:10552000000300030003E003E003000000000000AC
:10553000C001C00160036003600330063006180C30
:10554000180C000000000000000000000000000037
:10555000000000000000000000000000000000004B
:10556000000000000000000000000000000000003B
:105570000000000000000000000000000000FFFF2D
:10558000FFFF0000000000000000000000000C0011
:105590000C000C000C000C000C00000000000000CF
:1055A00000000000000000000000000000000000FB
:1055B00000000000000000000000000000000000EB
:1055C0000000000000000000F003F8071C0C0C0CA9
:1055D000000FF00FF80C0C0C0C0C1C0FF80FF0184F
:1055E00000000000000000000000000000001800A3
:1055F0001800180018001800D803F80F380C1818F5
:1056000018181818181818181818380CF80FD80384
:10561000000000000000000000000000000000008A
:105620000000000000000000C003F007300E180C5E
:105630001800180018001800180C300EF007C003EE
:105640000000000000000000000000000000001842
:105650000018001800180018C01BF01F301C181884
:1056600018181818181818181818301CF01FC01B14
:10567000000000000000000000000000000000002A
:105680000000000000000000C003F00F300C1818EC
:10569000F81FF81F180018003818301CF00FC0074A
:1056A0000000000000000000000000000000800F6B
:1056B000C00FC000C000C000F007F007C000C0006D
:1056C000C000C000C000C000C000C000C000C000DA
:1056D00000000000000000000000000000000000CA
:1056E0000000000000000000E00DF80F180E0C0C88
:1056F0000C0C0C0C0C0C0C0C0C0C180EF80FE00D18
:10570000000C0C0C1C06F807F0010000000018004B
:105710001800180018001800D807F80F381C1818BF
:1057200018181818181818181818181818181818F9
:105730000000000000000000000000000000C000A9
:10574000C000000000000000C000C000C000C00099
:10575000C000C000C000C000C000C000C000C00049
:105760000000000000000000000000000000C00079
:10577000C000000000000000C000C000C000C00069
:10578000C000C000C000C000C000C000C000C00019
:10579000C000C000C000F8007800000000000C004D
:1057A0000C000C000C000C000C0C0C060C038C0103
:1057B000CC006C00FC009C018C030C030C060C0C50
:1057C0000000000000000000000000000000C00019
:1057D000C000C000C000C000C000C000C000C000C9
:1057E000C000C000C000C000C000C000C000C000B9
:1057F00000000000000000000000000000000000A9
:1058000000000000000000007C3CFF7EC7E383C175
:1058100083C183C183C183C183C183C183C183C168
:105820000000000000000000000000000000000078
:1058300000000000000000009807F80F381C18183E
:1058400018181818181818181818181818181818D8
:105850000000000000000000000000000000000048
:105860000000000000000000C003F00F300C18180A
:1058700018181818181818181818300CF00FC0033A
:105880000000000000000000000000000000000018
:105890000000000000000000D803F80F380C1818B2
:1058A00018181818181818181818380CF80FD803E2
:1058B0001800180018001800180000000000000070
:1058C0000000000000000000C01BF01F301C181872
:1058D00018181818181818181818301CF01FC01BA2
:1058E0000018001800180018001800000000000040
:1058F0000000000000000000B007F003700030005E
:105900003000300030003000300030003000300017
:105910000000000000000000000000000000000087
:105920000000000000000000E003F003380E180C37
:105930003800F003C007000C180C380EF007E00325
:105940000000000000000000000000000000000057
:105950008000C000C000C000F007F007C000C00019
:10596000C000C000C000C000C000C000C007800769
:105970000000000000000000000000000000000027
:105980000000000000000000181818181818181857
:1059900018181818181818181818381CF01FE019BB
:1059A00000000000000000000000000000000000F7
:1059B00000000000000000000C18180C180C180C57
:1059C000300630063006600360036003C001C0018A
:1059D00000000000000000000000000000000000C7
:1059E0000000000000000000C141C141C3616363C9
:1059F000636363633636363636361C1C1C1C1C1C2F
:105A00000000000000000000000000000000000096
:105A100000000000000000001C38381C300C60063C
:105A200060036003600360036006300C381C1C38A0
:105A30000000000000000000000000000000000066
:105A400000000000000000001830301830187018F6
:105A5000600C600CE00CC006C0068003800380036D
:105A600080018001C001F000700000000000000013
:105A70000000000000000000FC1FFC1F000C0006DE
:105A800000038001C000600030001800FC1FFC1FF4
:105A90000000000000000000000000000000000303
:105AA0008001C000C000C000C000C000C000600095
:105AB0006000300060004000C000C000C000C000B6
:105AC000C000C00080010003000000000000800151
:105AD00080018001800180018001800180018001BE
